{
  "_format": "hh-sol-artifact-1",
  "contractName": "ChainBreak",
  "sourceName": "contracts/ChainBreak.sol",
  "abi": [
    {
      "inputs": [],
      "stateMutability": "nonpayable",
      "type": "constructor"
    },
    {
      "anonymous": false,
      "inputs": [
        {
          "indexed": false,
          "internalType": "address",
          "name": "user1",
          "type": "address"
        },
        {
          "indexed": false,
          "internalType": "address",
          "name": "user2",
          "type": "address"
        },
        {
          "components": [
            {
              "internalType": "int256",
              "name": "amount",
              "type": "int256"
            },
            {
              "internalType": "string",
              "name": "description",
              "type": "string"
            },
            {
              "internalType": "uint32",
              "name": "createdAt",
              "type": "uint32"
            },
            {
              "internalType": "uint32",
              "name": "dueDate",
              "type": "uint32"
            },
            {
              "internalType": "bool",
              "name": "from1",
              "type": "bool"
            },
            {
              "internalType": "enum IChainBreak.TxStatus",
              "name": "status",
              "type": "uint8"
            },
            {
              "internalType": "enum IChainBreak.TxType",
              "name": "txType",
              "type": "uint8"
            }
          ],
          "indexed": false,
          "internalType": "struct IChainBreak.Tx",
          "name": "transaction",
          "type": "tuple"
        },
        {
          "indexed": false,
          "internalType": "uint256",
          "name": "idx",
          "type": "uint256"
        }
      ],
      "name": "Transaction",
      "type": "event"
    },
    {
      "anonymous": false,
      "inputs": [
        {
          "indexed": false,
          "internalType": "address",
          "name": "user1",
          "type": "address"
        },
        {
          "indexed": false,
          "internalType": "address",
          "name": "user2",
          "type": "address"
        },
        {
          "components": [
            {
              "internalType": "int256",
              "name": "amount",
              "type": "int256"
            },
            {
              "internalType": "string",
              "name": "description",
              "type": "string"
            },
            {
              "internalType": "uint32",
              "name": "createdAt",
              "type": "uint32"
            },
            {
              "internalType": "uint32",
              "name": "dueDate",
              "type": "uint32"
            },
            {
              "internalType": "bool",
              "name": "from1",
              "type": "bool"
            },
            {
              "internalType": "enum IChainBreak.TxStatus",
              "name": "status",
              "type": "uint8"
            },
            {
              "internalType": "enum IChainBreak.TxType",
              "name": "txType",
              "type": "uint8"
            }
          ],
          "indexed": false,
          "internalType": "struct IChainBreak.Tx",
          "name": "transaction",
          "type": "tuple"
        },
        {
          "indexed": false,
          "internalType": "uint256",
          "name": "idx",
          "type": "uint256"
        }
      ],
      "name": "TransactionConfirmed",
      "type": "event"
    },
    {
      "anonymous": false,
      "inputs": [
        {
          "indexed": false,
          "internalType": "address",
          "name": "user1",
          "type": "address"
        },
        {
          "indexed": false,
          "internalType": "address",
          "name": "user2",
          "type": "address"
        },
        {
          "components": [
            {
              "internalType": "int256",
              "name": "amount",
              "type": "int256"
            },
            {
              "internalType": "string",
              "name": "description",
              "type": "string"
            },
            {
              "internalType": "uint32",
              "name": "createdAt",
              "type": "uint32"
            },
            {
              "internalType": "uint32",
              "name": "dueDate",
              "type": "uint32"
            },
            {
              "internalType": "bool",
              "name": "from1",
              "type": "bool"
            },
            {
              "internalType": "enum IChainBreak.TxStatus",
              "name": "status",
              "type": "uint8"
            },
            {
              "internalType": "enum IChainBreak.TxType",
              "name": "txType",
              "type": "uint8"
            }
          ],
          "indexed": false,
          "internalType": "struct IChainBreak.Tx",
          "name": "transaction",
          "type": "tuple"
        },
        {
          "indexed": false,
          "internalType": "uint256",
          "name": "idx",
          "type": "uint256"
        }
      ],
      "name": "TransactionRejected",
      "type": "event"
    },
    {
      "inputs": [],
      "name": "allUsers",
      "outputs": [
        {
          "internalType": "address[]",
          "name": "",
          "type": "address[]"
        }
      ],
      "stateMutability": "view",
      "type": "function"
    },
    {
      "inputs": [
        {
          "internalType": "address[]",
          "name": "users",
          "type": "address[]"
        },
        {
          "internalType": "int256",
          "name": "amount",
          "type": "int256"
        }
      ],
      "name": "breakDebtCircuit",
      "outputs": [],
      "stateMutability": "nonpayable",
      "type": "function"
    },
    {
      "inputs": [],
      "name": "cbNFT",
      "outputs": [
        {
          "internalType": "contract ChainBreakNFT",
          "name": "",
          "type": "address"
        }
      ],
      "stateMutability": "view",
      "type": "function"
    },
    {
      "inputs": [
        {
          "internalType": "address",
          "name": "addr1",
          "type": "address"
        },
        {
          "internalType": "address",
          "name": "addr2",
          "type": "address"
        }
      ],
      "name": "channelFor",
      "outputs": [
        {
          "internalType": "address",
          "name": "user1",
          "type": "address"
        },
        {
          "internalType": "address",
          "name": "user2",
          "type": "address"
        },
        {
          "components": [
            {
              "internalType": "int256",
              "name": "balance1",
              "type": "int256"
            },
            {
              "internalType": "int256",
              "name": "balance2",
              "type": "int256"
            },
            {
              "internalType": "uint256",
              "name": "fees",
              "type": "uint256"
            },
            {
              "components": [
                {
                  "internalType": "int256",
                  "name": "amount",
                  "type": "int256"
                },
                {
                  "internalType": "string",
                  "name": "description",
                  "type": "string"
                },
                {
                  "internalType": "uint32",
                  "name": "createdAt",
                  "type": "uint32"
                },
                {
                  "internalType": "uint32",
                  "name": "dueDate",
                  "type": "uint32"
                },
                {
                  "internalType": "bool",
                  "name": "from1",
                  "type": "bool"
                },
                {
                  "internalType": "enum IChainBreak.TxStatus",
                  "name": "status",
                  "type": "uint8"
                },
                {
                  "internalType": "enum IChainBreak.TxType",
                  "name": "txType",
                  "type": "uint8"
                }
              ],
              "internalType": "struct IChainBreak.Tx[]",
              "name": "txs",
              "type": "tuple[]"
            }
          ],
          "internalType": "struct IChainBreak.Channel",
          "name": "",
          "type": "tuple"
        }
      ],
      "stateMutability": "view",
      "type": "function"
    },
    {
      "inputs": [
        {
          "internalType": "address",
          "name": "user",
          "type": "address"
        },
        {
          "internalType": "uint256",
          "name": "idx",
          "type": "uint256"
        }
      ],
      "name": "confirmTx",
      "outputs": [],
      "stateMutability": "nonpayable",
      "type": "function"
    },
    {
      "inputs": [
        {
          "internalType": "address",
          "name": "user",
          "type": "address"
        },
        {
          "internalType": "int256",
          "name": "amount",
          "type": "int256"
        },
        {
          "internalType": "string",
          "name": "description",
          "type": "string"
        },
        {
          "internalType": "bool",
          "name": "send",
          "type": "bool"
        },
        {
          "internalType": "uint32",
          "name": "dueDate",
          "type": "uint32"
        }
      ],
      "name": "createTx",
      "outputs": [],
      "stateMutability": "payable",
      "type": "function"
    },
    {
      "inputs": [],
      "name": "getAllData",
      "outputs": [
        {
          "components": [
            {
              "internalType": "address",
              "name": "user",
              "type": "address"
            },
            {
              "components": [
                {
                  "internalType": "address",
                  "name": "user1",
                  "type": "address"
                },
                {
                  "internalType": "address",
                  "name": "user2",
                  "type": "address"
                },
                {
                  "components": [
                    {
                      "internalType": "int256",
                      "name": "balance1",
                      "type": "int256"
                    },
                    {
                      "internalType": "int256",
                      "name": "balance2",
                      "type": "int256"
                    },
                    {
                      "internalType": "uint256",
                      "name": "fees",
                      "type": "uint256"
                    },
                    {
                      "components": [
                        {
                          "internalType": "int256",
                          "name": "amount",
                          "type": "int256"
                        },
                        {
                          "internalType": "string",
                          "name": "description",
                          "type": "string"
                        },
                        {
                          "internalType": "uint32",
                          "name": "createdAt",
                          "type": "uint32"
                        },
                        {
                          "internalType": "uint32",
                          "name": "dueDate",
                          "type": "uint32"
                        },
                        {
                          "internalType": "bool",
                          "name": "from1",
                          "type": "bool"
                        },
                        {
                          "internalType": "enum IChainBreak.TxStatus",
                          "name": "status",
                          "type": "uint8"
                        },
                        {
                          "internalType": "enum IChainBreak.TxType",
                          "name": "txType",
                          "type": "uint8"
                        }
                      ],
                      "internalType": "struct IChainBreak.Tx[]",
                      "name": "txs",
                      "type": "tuple[]"
                    }
                  ],
                  "internalType": "struct IChainBreak.Channel",
                  "name": "channel",
                  "type": "tuple"
                }
              ],
              "internalType": "struct IChainBreak.ChannelView[]",
              "name": "views",
              "type": "tuple[]"
            }
          ],
          "internalType": "struct IChainBreak.UserView[]",
          "name": "",
          "type": "tuple[]"
        }
      ],
      "stateMutability": "view",
      "type": "function"
    },
    {
      "inputs": [
        {
          "internalType": "address",
          "name": "user",
          "type": "address"
        }
      ],
      "name": "getAllUserChannels",
      "outputs": [
        {
          "components": [
            {
              "internalType": "address",
              "name": "user1",
              "type": "address"
            },
            {
              "internalType": "address",
              "name": "user2",
              "type": "address"
            },
            {
              "components": [
                {
                  "internalType": "int256",
                  "name": "balance1",
                  "type": "int256"
                },
                {
                  "internalType": "int256",
                  "name": "balance2",
                  "type": "int256"
                },
                {
                  "internalType": "uint256",
                  "name": "fees",
                  "type": "uint256"
                },
                {
                  "components": [
                    {
                      "internalType": "int256",
                      "name": "amount",
                      "type": "int256"
                    },
                    {
                      "internalType": "string",
                      "name": "description",
                      "type": "string"
                    },
                    {
                      "internalType": "uint32",
                      "name": "createdAt",
                      "type": "uint32"
                    },
                    {
                      "internalType": "uint32",
                      "name": "dueDate",
                      "type": "uint32"
                    },
                    {
                      "internalType": "bool",
                      "name": "from1",
                      "type": "bool"
                    },
                    {
                      "internalType": "enum IChainBreak.TxStatus",
                      "name": "status",
                      "type": "uint8"
                    },
                    {
                      "internalType": "enum IChainBreak.TxType",
                      "name": "txType",
                      "type": "uint8"
                    }
                  ],
                  "internalType": "struct IChainBreak.Tx[]",
                  "name": "txs",
                  "type": "tuple[]"
                }
              ],
              "internalType": "struct IChainBreak.Channel",
              "name": "channel",
              "type": "tuple"
            }
          ],
          "internalType": "struct IChainBreak.ChannelView[]",
          "name": "",
          "type": "tuple[]"
        }
      ],
      "stateMutability": "view",
      "type": "function"
    },
    {
      "inputs": [
        {
          "internalType": "address",
          "name": "user1",
          "type": "address"
        },
        {
          "internalType": "address",
          "name": "user2",
          "type": "address"
        },
        {
          "internalType": "address",
          "name": "user3",
          "type": "address"
        }
      ],
      "name": "getMinAmount",
      "outputs": [
        {
          "internalType": "int256",
          "name": "amount",
          "type": "int256"
        }
      ],
      "stateMutability": "view",
      "type": "function"
    },
    {
      "inputs": [
        {
          "internalType": "address",
          "name": "user",
          "type": "address"
        }
      ],
      "name": "getPendingTxs",
      "outputs": [
        {
          "components": [
            {
              "internalType": "address",
              "name": "user1",
              "type": "address"
            },
            {
              "internalType": "address",
              "name": "user2",
              "type": "address"
            },
            {
              "internalType": "uint256",
              "name": "idx",
              "type": "uint256"
            },
            {
              "components": [
                {
                  "internalType": "int256",
                  "name": "amount",
                  "type": "int256"
                },
                {
                  "internalType": "string",
                  "name": "description",
                  "type": "string"
                },
                {
                  "internalType": "uint32",
                  "name": "createdAt",
                  "type": "uint32"
                },
                {
                  "internalType": "uint32",
                  "name": "dueDate",
                  "type": "uint32"
                },
                {
                  "internalType": "bool",
                  "name": "from1",
                  "type": "bool"
                },
                {
                  "internalType": "enum IChainBreak.TxStatus",
                  "name": "status",
                  "type": "uint8"
                },
                {
                  "internalType": "enum IChainBreak.TxType",
                  "name": "txType",
                  "type": "uint8"
                }
              ],
              "internalType": "struct IChainBreak.Tx",
              "name": "tx",
              "type": "tuple"
            }
          ],
          "internalType": "struct IChainBreak.TxView[]",
          "name": "",
          "type": "tuple[]"
        }
      ],
      "stateMutability": "view",
      "type": "function"
    },
    {
      "inputs": [
        {
          "internalType": "address",
          "name": "user1",
          "type": "address"
        },
        {
          "internalType": "address",
          "name": "user2",
          "type": "address"
        },
        {
          "internalType": "uint256",
          "name": "idx",
          "type": "uint256"
        }
      ],
      "name": "getTx",
      "outputs": [
        {
          "components": [
            {
              "internalType": "int256",
              "name": "amount",
              "type": "int256"
            },
            {
              "internalType": "string",
              "name": "description",
              "type": "string"
            },
            {
              "internalType": "uint32",
              "name": "createdAt",
              "type": "uint32"
            },
            {
              "internalType": "uint32",
              "name": "dueDate",
              "type": "uint32"
            },
            {
              "internalType": "bool",
              "name": "from1",
              "type": "bool"
            },
            {
              "internalType": "enum IChainBreak.TxStatus",
              "name": "status",
              "type": "uint8"
            },
            {
              "internalType": "enum IChainBreak.TxType",
              "name": "txType",
              "type": "uint8"
            }
          ],
          "internalType": "struct IChainBreak.Tx",
          "name": "",
          "type": "tuple"
        }
      ],
      "stateMutability": "view",
      "type": "function"
    },
    {
      "inputs": [
        {
          "internalType": "address",
          "name": "user",
          "type": "address"
        }
      ],
      "name": "getUserContacts",
      "outputs": [
        {
          "internalType": "address[]",
          "name": "",
          "type": "address[]"
        }
      ],
      "stateMutability": "view",
      "type": "function"
    },
    {
      "inputs": [
        {
          "internalType": "address[]",
          "name": "users",
          "type": "address[]"
        },
        {
          "internalType": "int256",
          "name": "amount",
          "type": "int256"
        }
      ],
      "name": "isDebtCircuit",
      "outputs": [
        {
          "internalType": "bool",
          "name": "",
          "type": "bool"
        }
      ],
      "stateMutability": "view",
      "type": "function"
    },
    {
      "inputs": [
        {
          "internalType": "address",
          "name": "user",
          "type": "address"
        },
        {
          "internalType": "uint256",
          "name": "idx",
          "type": "uint256"
        }
      ],
      "name": "rejectTx",
      "outputs": [],
      "stateMutability": "nonpayable",
      "type": "function"
    },
    {
      "inputs": [
        {
          "internalType": "address",
          "name": "user1",
          "type": "address"
        },
        {
          "internalType": "address",
          "name": "user2",
          "type": "address"
        }
      ],
      "name": "sort",
      "outputs": [
        {
          "internalType": "address",
          "name": "",
          "type": "address"
        },
        {
          "internalType": "address",
          "name": "",
          "type": "address"
        }
      ],
      "stateMutability": "pure",
      "type": "function"
    },
    {
      "inputs": [],
      "name": "tryFindDebtCircuit",
      "outputs": [
        {
          "internalType": "address[]",
          "name": "",
          "type": "address[]"
        },
        {
          "internalType": "int256",
          "name": "",
          "type": "int256"
        }
      ],
      "stateMutability": "view",
      "type": "function"
    }
  ],
  "bytecode": "0x60806040523480156200001157600080fd5b50604051620000209062000064565b604051809103906000f0801580156200003d573d6000803e3d6000fd5b50600080546001600160a01b0319166001600160a01b039290921691909117905562000072565b6116f88062003dd383390190565b613d5180620000826000396000f3fe6080604052600436106100f35760003560e01c80636ac6e9361161008a578063c429392211610059578063c4293922146102de578063df153d271461030d578063f5ed0b291461032d578063f6486cdb1461034d57600080fd5b80636ac6e93614610231578063811fb174146102515780638edfcb741461027e578063c03966241461029e57600080fd5b80633ad21093116100c65780633ad21093146101855780634918600a146101b257806351885b0a146101d457806359c13e251461020157600080fd5b806303554c01146100f857806321ede1a41461012b5780632478abd51461014e5780632d10fa2814610163575b600080fd5b34801561010457600080fd5b506101186101133660046131f5565b610385565b6040519081526020015b60405180910390f35b34801561013757600080fd5b50610140610446565b60405161012292919061327c565b61016161015c3660046132b2565b610c72565b005b34801561016f57600080fd5b50610178611126565b604051610122919061356f565b34801561019157600080fd5b506101a56101a03660046135ec565b611250565b604051610122919061360e565b3480156101be57600080fd5b506101c7611614565b6040516101229190613697565b3480156101e057600080fd5b506101f46101ef3660046135ec565b611676565b60405161012291906136aa565b34801561020d57600080fd5b5061022161021c3660046136d3565b61198f565b6040519015158152602001610122565b34801561023d57600080fd5b506101c761024c3660046135ec565b611cbc565b34801561025d57600080fd5b5061027161026c36600461379e565b611d32565b60405161012291906137da565b34801561028a57600080fd5b506101616102993660046137ed565b611f18565b3480156102aa57600080fd5b506102be6102b9366004613868565b612711565b604080516001600160a01b03938416815292909116602083015201610122565b3480156102ea57600080fd5b506102fe6102f9366004613868565b612743565b6040516101229392919061389b565b34801561031957600080fd5b506101616103283660046138d0565b612974565b34801561033957600080fd5b506101616103483660046138d0565b612b2b565b34801561035957600080fd5b5060005461036d906001600160a01b031681565b6040516001600160a01b039091168152602001610122565b7f7fffffffffffffffffffffffffffffffffffffffffffffffffffffffffffffff60006103b28585612743565b9250505060006103c28585612743565b9250505060006103d28588612743565b92505050836103e48460000151612e91565b12156103f85782516103f590612e91565b93505b836104068360000151612e91565b121561041a57815161041790612e91565b93505b836104288260000151612e91565b121561043c57805161043990612e91565b93505b5050509392505050565b6040805160c080820183526000828401818152600160608581018290526002608080880182905260a080890187905294885288518082018a528681526020818101849052818b01869052818501889052808a0191909152895161016081018b5297880187815260e08901869052610100890184905260036101208a018190526101408a018990529089528a518088018c52888152808301859052808c01879052808601829052808401899052898301528a518088018c52888152808301829052808c01879052808601859052808401899052898c01528a518088018c52888152808301879052808c01829052808601859052808401899052898601528a518088018c52888152808301859052808c01829052808601879052808401899052898401528a518088018c52888152918201529889019190915287820192909252908601839052908301949094529190825b600281101561088057600061067e60038584600281106105b7576105b76138fa565b602002015151815460ff9091169081106105d3576105d36138fa565b6000918252602090912001546001600160a01b031660038685600281106105fc576105fc6138fa565b60200201516001602002015160ff168154811061061b5761061b6138fa565b6000918252602090912001546001600160a01b03166003878660028110610644576106446138fa565b602002015160025b602002015160ff1681548110610664576106646138fa565b6000918252602090912001546001600160a01b0316610385565b60408051600480825260a08201909252919250600091906020820160808036833701905050905060038584600281106106b9576106b96138fa565b602002015151815460ff9091169081106106d5576106d56138fa565b6000918252602090912001546001600160a01b031660038685600281106106fe576106fe6138fa565b60200201516001602002015160ff168154811061071d5761071d6138fa565b6000918252602090912001546001600160a01b03166003878660028110610746576107466138fa565b60200201516002602002015160ff1681548110610765576107656138fa565b6000918252602090912001546001600160a01b0316600388876002811061078e5761078e6138fa565b60200201516003602002015160ff16815481106107ad576107ad6138fa565b600091825260208220015485516001600160a01b039091169186916107d4576107d46138fa565b60200260200101856001815181106107ee576107ee6138fa565b6020026020010186600281518110610808576108086138fa565b6020026020010187600381518110610822576108226138fa565b6001600160a01b0395861660209182029290920101529383169093529281169091529190911690526000610856828461198f565b9050801561086a5750969095509350505050565b505050808061087890613926565b915050610595565b5060005b6006811015610c6b57600061093f60038484600681106108a6576108a66138fa565b602002015151815460ff9091169081106108c2576108c26138fa565b6000918252602090912001546001600160a01b031660038585600681106108eb576108eb6138fa565b60200201516001602002015160ff168154811061090a5761090a6138fa565b6000918252602090912001546001600160a01b03166003868660068110610933576109336138fa565b6020020151600261064c565b905060006109f6600385856006811061095a5761095a6138fa565b60200201516001602002015160ff1681548110610979576109796138fa565b6000918252602090912001546001600160a01b031660038686600681106109a2576109a26138fa565b60200201516002602002015160ff16815481106109c1576109c16138fa565b6000918252602090912001546001600160a01b031660038787600681106109ea576109ea6138fa565b6020020151600361064c565b905080821315610a04578091505b60408051600580825260c082019092526000916020820160a0803683370190505090506003858560068110610a3b57610a3b6138fa565b602002015151815460ff909116908110610a5757610a576138fa565b6000918252602090912001546001600160a01b03166003868660068110610a8057610a806138fa565b60200201516001602002015160ff1681548110610a9f57610a9f6138fa565b6000918252602090912001546001600160a01b03166003878760068110610ac857610ac86138fa565b60200201516002602002015160ff1681548110610ae757610ae76138fa565b6000918252602090912001546001600160a01b03166003888860068110610b1057610b106138fa565b60200201516003602002015160ff1681548110610b2f57610b2f6138fa565b6000918252602090912001546001600160a01b03166003898960068110610b5857610b586138fa565b60200201516004602002015160ff1681548110610b7757610b776138fa565b600091825260208220015486516001600160a01b03909116918791610b9e57610b9e6138fa565b6020026020010186600181518110610bb857610bb86138fa565b6020026020010187600281518110610bd257610bd26138fa565b6020026020010188600381518110610bec57610bec6138fa565b6020026020010189600481518110610c0657610c066138fa565b6001600160a01b039687166020918202929092010152948416909452938216909252928316909152911690526000610c3e828561198f565b90508015610c5457509791965090945050505050565b505050508080610c6390613926565b915050610884565b5050509091565b60008513610ced5760405162461bcd60e51b815260206004820152602560248201527f436861696e427265616b3a3a63726561746554783a206e65676174697665206160448201527f6d6f756e7400000000000000000000000000000000000000000000000000000060648201526084015b60405180910390fd5b336001600160a01b03871603610d455760405162461bcd60e51b815260206004820152601e60248201527f436861696e427265616b3a3a63726561746554783a20626164207573657200006044820152606401610ce4565b600080610d523389612711565b90925090506000336001600160a01b03841614610d70576001610d73565b60005b9050600080826003811115610d8a57610d8a613366565b03610d96575084610d9a565b5084155b6001600160a01b03808516600081815260026020908152604080832094881683529381528382209282526001905291822054909103610e2c57600380546001810182556000919091527fc2575a0e9e593c00f959f8c92f12db2869c3395a3b0502d05e2516446f71f85b01805473ffffffffffffffffffffffffffffffffffffffff19166001600160a01b0387161790555b6001600160a01b0384166000908152600160205260408120549003610ea457600380546001810182556000919091527fc2575a0e9e593c00f959f8c92f12db2869c3395a3b0502d05e2516446f71f85b01805473ffffffffffffffffffffffffffffffffffffffff19166001600160a01b0386161790555b6003810154600003610f17576001600160a01b03808616600081815260016020818152604080842080548085018255908552828520018054968b1673ffffffffffffffffffffffffffffffffffffffff199788168117909155845283208054928301815583529091200180549092161790555b60006040518060e001604052808c81526020018b8b8080601f01602080910402602001604051908101604052809392919081815260200183838082843760009201919091525050509082525063ffffffff4281166020830152891660408201528415156060820152608001856003811115610f9457610f94613366565b81526020016000815250905034826002016000828254610fb4919061393f565b909155505060038083018054600181810183556000928352602092839020855192909402909301908155908301518392820190610ff190826139d1565b506040820151600282018054606085015160808601511515600160401b0268ff00000000000000001963ffffffff9283166401000000000267ffffffffffffffff199094169290951691909117919091179283168117825560a08501519269ff0000000000000000001990911669ffff00000000000000001990911617600160481b83600381111561108557611085613366565b021790555060c08201516002820180546aff0000000000000000000019166a01000000000000000000008360018111156110c1576110c1613366565b021790555050507f4c96b26ec7072eedcaee6d5e042ead6b0f5ea6a48ed3b781ea119de8805a8d1c868683600186600301805490506111009190613a91565b6040516111109493929190613aa4565b60405180910390a1505050505050505050505050565b60035460609060009067ffffffffffffffff811115611147576111476136bd565b60405190808252806020026020018201604052801561118d57816020015b6040805180820190915260008152606060208201528152602001906001900390816111655790505b50905060005b60035481101561124a576040518060400160405280600383815481106111bb576111bb6138fa565b9060005260206000200160009054906101000a90046001600160a01b03166001600160a01b03168152602001611217600384815481106111fd576111fd6138fa565b6000918252602090912001546001600160a01b0316611676565b81525082828151811061122c5761122c6138fa565b6020026020010181905250808061124290613926565b915050611193565b50919050565b604080516064808252610ca0820190925260609160009190816020015b61127561310c565b81526020019060019003908161126d5790505090506000805b6001600160a01b03851660009081526001602052604090205481101561160b576001600160a01b0385166000908152600160205260408120805482916112f991859081106112de576112de6138fa565b6000918252602090912001546001600160a01b031688612711565b6001600160a01b03808316600090815260026020908152604080832093851683529290529081209294509092505b60038201548110156115f457836001600160a01b0316896001600160a01b031614801561139857506001826003018281548110611366576113666138fa565b906000526020600020906003020160020160099054906101000a900460ff16600381111561139657611396613366565b145b806114035750826001600160a01b0316896001600160a01b0316148015611403575060008260030182815481106113d1576113d16138fa565b906000526020600020906003020160020160099054906101000a900460ff16600381111561140157611401613366565b145b156115e2576040518060800160405280856001600160a01b03168152602001846001600160a01b0316815260200182815260200183600301838154811061144c5761144c6138fa565b90600052602060002090600302016040518060e00160405290816000820154815260200160018201805461147f90613952565b80601f01602080910402602001604051908101604052809291908181526020018280546114ab90613952565b80156114f85780601f106114cd576101008083540402835291602001916114f8565b820191906000526020600020905b8154815290600101906020018083116114db57829003601f168201915b5050509183525050600282015463ffffffff8082166020840152640100000000820416604083015260ff600160401b8204811615156060840152608090920191600160481b90910416600381111561155257611552613366565b600381111561156357611563613366565b815260200160028201600a9054906101000a900460ff16600181111561158b5761158b613366565b600181111561159c5761159c613366565b815250508152508787815181106115b5576115b56138fa565b60209081029190910101526115cb60018761393f565b9550856064036115e2575094979650505050505050565b806115ec81613926565b915050611327565b50505050808061160390613926565b91505061128e565b50909392505050565b6060600380548060200260200160405190810160405280929190818152602001828054801561166c57602002820191906000526020600020905b81546001600160a01b0316815260019091019060200180831161164e575b5050505050905090565b6001600160a01b0381166000908152600160205260408120546060919067ffffffffffffffff8111156116ab576116ab6136bd565b6040519080825280602002602001820160405280156116e457816020015b6116d1613183565b8152602001906001900390816116c95790505b50905060005b6001600160a01b038416600090815260016020526040902054811015611988576001600160a01b038416600090815260016020526040812080548291611757918891908690811061173d5761173d6138fa565b6000918252602090912001546001600160a01b0316612711565b60408051606080820183526001600160a01b0380861680845290851660208085018290526000928352600280825286842092845291815285832086516080810188528154815260018201548184015292810154838801526003810180548851818502810185018a528181529a9c50989a509598968901979296909594870194909390929184015b8282101561194b57838290600052602060002090600302016040518060e00160405290816000820154815260200160018201805461181b90613952565b80601f016020809104026020016040519081016040528092919081815260200182805461184790613952565b80156118945780601f1061186957610100808354040283529160200191611894565b820191906000526020600020905b81548152906001019060200180831161187757829003601f168201915b5050509183525050600282015463ffffffff8082166020840152640100000000820416604083015260ff600160401b8204811615156060840152608090920191600160481b9091041660038111156118ee576118ee613366565b60038111156118ff576118ff613366565b815260200160028201600a9054906101000a900460ff16600181111561192757611927613366565b600181111561193857611938613366565b81525050815260200190600101906117de565b5050505081525050815250848481518110611968576119686138fa565b60200260200101819052505050808061198090613926565b9150506116ea565b5092915050565b6000805b600184516119a19190613a91565b811015611cb0576000806119f38684815181106119c0576119c06138fa565b6020026020010151878560016119d6919061393f565b815181106119e6576119e66138fa565b6020026020010151612711565b6001600160a01b03808316600090815260026020818152604080842094861684529381528383208451608081018652815481526001820154818401529281015483860152600381018054865181850281018501909752808752979950959750929591949293606086019390929091879084015b82821015611bd357838290600052602060002090600302016040518060e001604052908160008201548152602001600182018054611aa390613952565b80601f0160208091040260200160405190810160405280929190818152602001828054611acf90613952565b8015611b1c5780601f10611af157610100808354040283529160200191611b1c565b820191906000526020600020905b815481529060010190602001808311611aff57829003601f168201915b5050509183525050600282015463ffffffff8082166020840152640100000000820416604083015260ff600160401b8204811615156060840152608090920191600160481b909104166003811115611b7657611b76613366565b6003811115611b8757611b87613366565b815260200160028201600a9054906101000a900460ff166001811115611baf57611baf613366565b6001811115611bc057611bc0613366565b8152505081526020019060010190611a66565b50505050815250509050826001600160a01b0316878581518110611bf957611bf96138fa565b60200260200101516001600160a01b031603611c5a578581600001818151611c219190613ae1565b905250602081018051879190611c38908390613b09565b905250602081015160001315611c55576000945050505050611cb6565b611c9a565b8581602001818151611c6c9190613ae1565b905250805186908290611c80908390613b09565b905250805160001315611c9a576000945050505050611cb6565b5050508080611ca890613926565b915050611993565b50600190505b92915050565b6001600160a01b038116600090815260016020908152604091829020805483518184028101840190945280845260609392830182828015611d2657602002820191906000526020600020905b81546001600160a01b03168152600190910190602001808311611d08575b50505050509050919050565b611d726040805160e0810182526000808252606060208301819052928201819052918101829052608081018290529060a082019081526020016000905290565b611d7c8484612711565b6001600160a01b03808316600090815260026020908152604080832093851683529290522060030180549296509094509083908110611dbd57611dbd6138fa565b90600052602060002090600302016040518060e001604052908160008201548152602001600182018054611df090613952565b80601f0160208091040260200160405190810160405280929190818152602001828054611e1c90613952565b8015611e695780601f10611e3e57610100808354040283529160200191611e69565b820191906000526020600020905b815481529060010190602001808311611e4c57829003601f168201915b5050509183525050600282015463ffffffff8082166020840152640100000000820416604083015260ff600160401b8204811615156060840152608090920191600160481b909104166003811115611ec357611ec3613366565b6003811115611ed457611ed4613366565b815260200160028201600a9054906101000a900460ff166001811115611efc57611efc613366565b6001811115611f0d57611f0d613366565b905250949350505050565b60008113611f8e5760405162461bcd60e51b815260206004820152602d60248201527f436861696e427265616b3a3a627265616b44656274436972637569743a206e6560448201527f67617469766520616d6f756e74000000000000000000000000000000000000006064820152608401610ce4565b6000611fe5848285611fa1600182613a91565b92611fae93929190613b29565b80806020026020016040519081016040528093929190818152602001838360200280828437600092019190915250612ead92505050565b905060005b60018251611ff89190613a91565b8110156120d4578161200b82600161393f565b8151811061201b5761201b6138fa565b60200260200101516001600160a01b031682828151811061203e5761203e6138fa565b60200260200101516001600160a01b0316036120c25760405162461bcd60e51b815260206004820152603060248201527f436861696e427265616b3a3a627265616b44656274436972637569743a20647560448201527f706c696361746520656c656d656e7473000000000000000000000000000000006064820152608401610ce4565b806120cc81613926565b915050611fea565b5083836120e2600182613a91565b8181106120f1576120f16138fa565b905060200201602081019061210691906135ec565b6001600160a01b031684846000818110612122576121226138fa565b905060200201602081019061213791906135ec565b6001600160a01b0316146121b35760405162461bcd60e51b815260206004820152602660248201527f436861696e427265616b3a3a627265616b44656274436972637569743a20626160448201527f64207061746800000000000000000000000000000000000000000000000000006064820152608401610ce4565b6000805b6121c2600186613a91565b81101561265b576000806122278888858181106121e1576121e16138fa565b90506020020160208101906121f691906135ec565b898961220387600161393f565b818110612212576122126138fa565b90506020020160208101906102b991906135ec565b6001600160a01b03808316600090815260026020908152604080832093851683529290522091935091506122916040805160e0810182526000808252606060208301819052928201819052918101829052608081018290529060a082019081526020016000905290565b836001600160a01b03168a8a878181106122ad576122ad6138fa565b90506020020160208101906122c291906135ec565b6001600160a01b0316036123d157878260000160008282546122e49190613ae1565b92505081905550878260010160008282546122ff9190613b09565b909155505060018201546000131561236d5760405162461bcd60e51b815260206004820152602b60248201527f436861696e427265616b3a3a627265616b44656274436972637569743a20626160448201526a321037b832b930ba34b7b760a91b6064820152608401610ce4565b506040805160e08101825288815281518083018352600c81526b4175746f207265736f6c766560a01b6020808301919091528201524263ffffffff169181019190915260006060820152600160808201819052600260a083015260c08201526124c9565b878260010160008282546123e59190613ae1565b90915550508154889083906000906123fe908490613b09565b90915550508154600013156124695760405162461bcd60e51b815260206004820152602b60248201527f436861696e427265616b3a3a627265616b44656274436972637569743a20626160448201526a321037b832b930ba34b7b760a91b6064820152608401610ce4565b506040805160e08101825288815281518083018352600c81526b4175746f207265736f6c766560a01b6020808301919091528201524263ffffffff16918101919091526000606082018190526080820152600260a0820152600160c08201525b60028201546124d8908761393f565b60038084018054600181810183556000928352602092839020865192909402909301908155908401519298508392909182019061251590826139d1565b506040820151600282018054606085015160808601511515600160401b0268ff00000000000000001963ffffffff9283166401000000000267ffffffffffffffff199094169290951691909117919091179283168117825560a08501519269ff0000000000000000001990911669ffff00000000000000001990911617600160481b8360038111156125a9576125a9613366565b021790555060c08201516002820180546aff0000000000000000000019166a01000000000000000000008360018111156125e5576125e5613366565b021790555050600060028401555060038201547f4c96b26ec7072eedcaee6d5e042ead6b0f5ea6a48ed3b781ea119de8805a8d1c9085908590849061262c90600190613a91565b60405161263c9493929190613aa4565b60405180910390a150505050808061265390613926565b9150506121b7565b506000546040517f6a6278420000000000000000000000000000000000000000000000000000000081523360048201526001600160a01b0390911690636a62784290602401600060405180830381600087803b1580156126ba57600080fd5b505af11580156126ce573d6000803e3d6000fd5b50505050600081111561270a57604051339082156108fc029083906000818181858888f19350505050158015612708573d6000803e3d6000fd5b505b5050505050565b600080826001600160a01b0316846001600160a01b03161115612735578284612738565b83835b915091509250929050565b6000806127716040518060800160405280600081526020016000815260200160008152602001606081525090565b61277b8585612711565b6001600160a01b03808316600090815260026020818152604080842094861684529381528383208451608081018652815481526001820154818401529281015483860152600381018054865181850281018501909752808752979a50959850899689969195939486946060870194909392919084015b8282101561295e57838290600052602060002090600302016040518060e00160405290816000820154815260200160018201805461282e90613952565b80601f016020809104026020016040519081016040528092919081815260200182805461285a90613952565b80156128a75780601f1061287c576101008083540402835291602001916128a7565b820191906000526020600020905b81548152906001019060200180831161288a57829003601f168201915b5050509183525050600282015463ffffffff8082166020840152640100000000820416604083015260ff600160401b8204811615156060840152608090920191600160481b90910416600381111561290157612901613366565b600381111561291257612912613366565b815260200160028201600a9054906101000a900460ff16600181111561293a5761293a613366565b600181111561294b5761294b613366565b81525050815260200190600101906127f1565b5050509152509399929850965090945050505050565b6000806129813385612711565b6001600160a01b038083166000908152600260209081526040808320938516835292905290812060038101805494965092945092909190869081106129c8576129c86138fa565b600091825260209091206003909102019050600280820154600160481b900460ff1660038111156129fb576129fb613366565b1480612a26575060036002820154600160481b900460ff166003811115612a2457612a24613366565b145b15612a735760405162461bcd60e51b815260206004820181905260248201527f436861696e427265616b3a3a72656a65637454783a20626164207374617475736044820152606401610ce4565b8054600012612ac45760405162461bcd60e51b815260206004820181905260248201527f436861696e427265616b3a3a72656a65637454783a2062616420616d6f756e746044820152606401610ce4565b60028101805469ff000000000000000000191669030000000000000000001790556040517f5f203865d685fd3124a2a10eeda402047221470b8284413fd6a89aa1595f02ab90612b1b908690869085908a90613b57565b60405180910390a1505050505050565b600080612b383385612711565b6001600160a01b03808316600090815260026020908152604080832093851683529290529081206003810180549496509294509290919086908110612b7f57612b7f6138fa565b600091825260209091206003909102019050600280820154600160481b900460ff166003811115612bb257612bb2613366565b1480612bdd575060036002820154600160481b900460ff166003811115612bdb57612bdb613366565b145b15612c505760405162461bcd60e51b815260206004820152602160248201527f436861696e427265616b3a3a636f6e6669726d54783a2062616420737461747560448201527f73000000000000000000000000000000000000000000000000000000000000006064820152608401610ce4565b8054600012612cc75760405162461bcd60e51b815260206004820152602160248201527f436861696e427265616b3a3a636f6e6669726d54783a2062616420616d6f756e60448201527f74000000000000000000000000000000000000000000000000000000000000006064820152608401610ce4565b60006002820154600160481b900460ff166003811115612ce957612ce9613366565b03612d5757336001600160a01b03841614612d525760405162461bcd60e51b815260206004820152602360248201527f436861696e427265616b3a3a636f6e6669726d54783a2063616e7420636f6e6660448201526269726d60e81b6064820152608401610ce4565b612dbb565b336001600160a01b03851614612dbb5760405162461bcd60e51b815260206004820152602360248201527f436861696e427265616b3a3a636f6e6669726d54783a2063616e7420636f6e6660448201526269726d60e81b6064820152608401610ce4565b60028101805469ff000000000000000000191669020000000000000000001790819055600160401b900460ff1615612e2757805482548390600090612e01908490613ae1565b90915550508054600183018054600090612e1c908490613b09565b90915550612e5c9050565b805482548390600090612e3b908490613b09565b90915550508054600183018054600090612e56908490613ae1565b90915550505b7f1b6de9770c4392445ac97458242f674061ccaacff199c95d361fb4f1a231475484848388604051612b1b9493929190613b57565b600080821215612ea957612ea482613c75565b611cb6565b5090565b60606000825167ffffffffffffffff811115612ecb57612ecb6136bd565b604051908082528060200260200182016040528015612ef4578160200160208202803683370190505b50905060005b8351811015612f5957838181518110612f1557612f156138fa565b6020026020010151828281518110612f2f57612f2f6138fa565b6001600160a01b039092166020928302919091019091015280612f5181613926565b915050612efa565b50611cb681600060018451612f6e9190613a91565b8181808203612f7e575050505050565b6000856002612f8d8787613b09565b612f979190613c91565b612fa19087613ae1565b81518110612fb157612fb16138fa565b60200260200101516001600160a01b031690505b8183136130e6575b80868481518110612fe057612fe06138fa565b60200260200101516001600160a01b03161015613009578261300181613ccd565b935050612fcd565b85828151811061301b5761301b6138fa565b60200260200101516001600160a01b0316811015613045578161303d81613cfe565b925050613009565b8183136130e15785828151811061305e5761305e6138fa565b6020026020010151868481518110613078576130786138fa565b6020026020010151878581518110613092576130926138fa565b602002602001018885815181106130ab576130ab6138fa565b6001600160a01b03938416602091820292909201015291169052826130cf81613ccd565b93505081806130dd90613cfe565b9250505b612fc5565b818512156130f9576130f9868684612f6e565b8383121561270857612708868486612f6e565b604051806080016040528060006001600160a01b0316815260200160006001600160a01b031681526020016000815260200161317e6040805160e0810182526000808252606060208301819052928201819052918101829052608081018290529060a082019081526020016000905290565b905290565b604051806060016040528060006001600160a01b0316815260200160006001600160a01b0316815260200161317e6040518060800160405280600081526020016000815260200160008152602001606081525090565b80356001600160a01b03811681146131f057600080fd5b919050565b60008060006060848603121561320a57600080fd5b613213846131d9565b9250613221602085016131d9565b915061322f604085016131d9565b90509250925092565b600081518084526020808501945080840160005b838110156132715781516001600160a01b03168752958201959082019060010161324c565b509495945050505050565b60408152600061328f6040830185613238565b90508260208301529392505050565b803563ffffffff811681146131f057600080fd5b60008060008060008060a087890312156132cb57600080fd5b6132d4876131d9565b955060208701359450604087013567ffffffffffffffff808211156132f857600080fd5b818901915089601f83011261330c57600080fd5b81358181111561331b57600080fd5b8a602082850101111561332d57600080fd5b6020830196508095505050506060870135801515811461334c57600080fd5b915061335a6080880161329e565b90509295509295509295565b634e487b7160e01b600052602160045260246000fd5b6004811061338c5761338c613366565b9052565b6002811061338c5761338c613366565b80518252600060208083015160e08286015280518060e087015260005b818110156133da57828101840151878201610100015283016133bd565b506101009250600083828801015260408501519150613401604087018363ffffffff169052565b6060850151915061341a606087018363ffffffff169052565b6080850151915061342f608087018315159052565b60a0850151915061344360a087018361337c565b60c0850151915061345760c0870183613390565b601f01601f191694909401019392505050565b60006080830182518452602080840151818601526040840151604086015260608401516080606087015282815180855260a08801915060a08160051b8901019450838301925060005b818110156134e157609f198987030183526134cf8685516133a0565b955092840192918401916001016134b3565b5093979650505050505050565b600081518084526020808501808196508360051b8101915082860160005b85811015613562578284038952815180516001600160a01b03908116865286820151168686015260409081015160609186018290529061354e8187018361346a565b9a87019a955050509084019060010161350c565b5091979650505050505050565b60006020808301818452808551808352604092508286019150828160051b87010184880160005b838110156135de57888303603f19018552815180516001600160a01b031684528701518784018790526135cb878501826134ee565b9588019593505090860190600101613596565b509098975050505050505050565b6000602082840312156135fe57600080fd5b613607826131d9565b9392505050565b60006020808301818452808551808352604092508286019150828160051b87010184880160005b838110156135de57888303603f19018552815180516001600160a01b0390811685528882015116888501528681015187850152606090810151608091850182905290613683818601836133a0565b968901969450505090860190600101613635565b6020815260006136076020830184613238565b60208152600061360760208301846134ee565b634e487b7160e01b600052604160045260246000fd5b600080604083850312156136e657600080fd5b823567ffffffffffffffff808211156136fe57600080fd5b818501915085601f83011261371257600080fd5b8135602082821115613726576137266136bd565b8160051b604051601f19603f8301168101818110868211171561374b5761374b6136bd565b60405292835281830193508481018201928984111561376957600080fd5b948201945b8386101561378e5761377f866131d9565b8552948201949382019361376e565b9997909101359750505050505050565b6000806000606084860312156137b357600080fd5b6137bc846131d9565b92506137ca602085016131d9565b9150604084013590509250925092565b60208152600061360760208301846133a0565b60008060006040848603121561380257600080fd5b833567ffffffffffffffff8082111561381a57600080fd5b818601915086601f83011261382e57600080fd5b81358181111561383d57600080fd5b8760208260051b850101111561385257600080fd5b6020928301989097509590910135949350505050565b6000806040838503121561387b57600080fd5b613884836131d9565b9150613892602084016131d9565b90509250929050565b60006001600160a01b038086168352808516602084015250606060408301526138c7606083018461346a565b95945050505050565b600080604083850312156138e357600080fd5b6138ec836131d9565b946020939093013593505050565b634e487b7160e01b600052603260045260246000fd5b634e487b7160e01b600052601160045260246000fd5b60006001820161393857613938613910565b5060010190565b80820180821115611cb657611cb6613910565b600181811c9082168061396657607f821691505b60208210810361124a57634e487b7160e01b600052602260045260246000fd5b601f8211156139cc57600081815260208120601f850160051c810160208610156139ad5750805b601f850160051c820191505b81811015612708578281556001016139b9565b505050565b815167ffffffffffffffff8111156139eb576139eb6136bd565b6139ff816139f98454613952565b84613986565b602080601f831160018114613a345760008415613a1c5750858301515b600019600386901b1c1916600185901b178555612708565b600085815260208120601f198616915b82811015613a6357888601518255948401946001909101908401613a44565b5085821015613a815787850151600019600388901b60f8161c191681555b5050505050600190811b01905550565b81810381811115611cb657611cb6613910565b60006001600160a01b03808716835280861660208401525060806040830152613ad060808301856133a0565b905082606083015295945050505050565b8082018281126000831280158216821582161715613b0157613b01613910565b505092915050565b818103600083128015838313168383128216171561198857611988613910565b60008085851115613b3957600080fd5b83861115613b4657600080fd5b5050600583901b0193919092039150565b60006001600160a01b03808716835260208187168185015260806040850152855460808501526001915081860160e060a086015260008154613b9881613952565b8061016089015261018086831660008114613bba5760018114613bd457613c02565b60ff1984168a83015282151560051b8a0182019450613c02565b856000528660002060005b84811015613bfa5781548c8201850152908901908801613bdf565b8b0183019550505b50505050600288015463ffffffff80821660c089015281851c811660e0890152604082901c60ff1615156101008901529094509150613c4b610120870160ff8660481c1661337c565b613c5f610140870160ff8660501c16613390565b8094505050505082606083015295945050505050565b6000600160ff1b8203613c8a57613c8a613910565b5060000390565b600082613cae57634e487b7160e01b600052601260045260246000fd5b600160ff1b821460001984141615613cc857613cc8613910565b500590565b60007f7fffffffffffffffffffffffffffffffffffffffffffffffffffffffffffffff820361393857613938613910565b6000600160ff1b8203613d1357613d13613910565b50600019019056fea2646970667358221220ea45a522b80b9bea22a0a357f5cb248f44141dfdf8a6b75f6594181972a735c164736f6c6343000813003360806040523480156200001157600080fd5b506040518060400160405280600c81526020016b21b430b4b7213932b0b5b2b960a11b8152506040518060400160405280600581526020016410d093919560da1b815250816000908162000066919062000135565b50600162000075828262000135565b5050600680546001600160a01b031916331790555062000201565b634e487b7160e01b600052604160045260246000fd5b600181811c90821680620000bb57607f821691505b602082108103620000dc57634e487b7160e01b600052602260045260246000fd5b50919050565b601f8211156200013057600081815260208120601f850160051c810160208610156200010b5750805b601f850160051c820191505b818110156200012c5782815560010162000117565b5050505b505050565b81516001600160401b0381111562000151576200015162000090565b6200016981620001628454620000a6565b84620000e2565b602080601f831160018114620001a15760008415620001885750858301515b600019600386901b1c1916600185901b1785556200012c565b600085815260208120601f198616915b82811015620001d257888601518255948401946001909101908401620001b1565b5085821015620001f15787850151600019600388901b60f8161c191681555b5050505050600190811b01905550565b6114e780620002116000396000f3fe608060405234801561001057600080fd5b50600436106100f55760003560e01c80636352211e11610097578063a22cb46511610066578063a22cb465146101f5578063b88d4fde14610208578063c87b56dd1461021b578063e985e9c51461022e57600080fd5b80636352211e146101b45780636a627842146101c757806370a08231146101da57806395d89b41146101ed57600080fd5b8063095ea7b3116100d3578063095ea7b31461016257806318160ddd1461017757806323b872dd1461018e57806342842e0e146101a157600080fd5b806301ffc9a7146100fa57806306fdde0314610122578063081812fc14610137575b600080fd5b61010d610108366004611137565b61026a565b60405190151581526020015b60405180910390f35b61012a610307565b60405161011991906111a4565b61014a6101453660046111b7565b610399565b6040516001600160a01b039091168152602001610119565b6101756101703660046111ec565b6103c0565b005b61018060075481565b604051908152602001610119565b61017561019c366004611216565b610514565b6101756101af366004611216565b61058b565b61014a6101c23660046111b7565b6105a6565b6101756101d5366004611252565b61060b565b6101806101e8366004611252565b61064b565b61012a6106e5565b61017561020336600461126d565b6106f4565b6101756102163660046112bf565b610703565b61012a6102293660046111b7565b610781565b61010d61023c36600461139b565b6001600160a01b03918216600090815260056020908152604080832093909416825291909152205460ff1690565b60006001600160e01b031982167f80ac58cd0000000000000000000000000000000000000000000000000000000014806102cd57506001600160e01b031982167f5b5e139f00000000000000000000000000000000000000000000000000000000145b8061030157507f01ffc9a7000000000000000000000000000000000000000000000000000000006001600160e01b03198316145b92915050565b606060008054610316906113ce565b80601f0160208091040260200160405190810160405280929190818152602001828054610342906113ce565b801561038f5780601f106103645761010080835404028352916020019161038f565b820191906000526020600020905b81548152906001019060200180831161037257829003601f168201915b5050505050905090565b60006103a4826107f5565b506000908152600460205260409020546001600160a01b031690565b60006103cb826105a6565b9050806001600160a01b0316836001600160a01b0316036104595760405162461bcd60e51b815260206004820152602160248201527f4552433732313a20617070726f76616c20746f2063757272656e74206f776e6560448201527f720000000000000000000000000000000000000000000000000000000000000060648201526084015b60405180910390fd5b336001600160a01b038216148061049357506001600160a01b038116600090815260056020908152604080832033845290915290205460ff165b6105055760405162461bcd60e51b815260206004820152603d60248201527f4552433732313a20617070726f76652063616c6c6572206973206e6f7420746f60448201527f6b656e206f776e6572206f7220617070726f76656420666f7220616c6c0000006064820152608401610450565b61050f8383610859565b505050565b61051e33826108d4565b6105805760405162461bcd60e51b815260206004820152602d60248201527f4552433732313a2063616c6c6572206973206e6f7420746f6b656e206f776e6560448201526c1c881bdc88185c1c1c9bdd9959609a1b6064820152608401610450565b61050f838383610953565b61050f83838360405180602001604052806000815250610703565b6000818152600260205260408120546001600160a01b0316806103015760405162461bcd60e51b815260206004820152601860248201527f4552433732313a20696e76616c696420746f6b656e20494400000000000000006044820152606401610450565b6006546001600160a01b0316331461062257600080fd5b6001600760008282546106359190611408565b9250508190555061064881600754610b59565b50565b60006001600160a01b0382166106c95760405162461bcd60e51b815260206004820152602960248201527f4552433732313a2061646472657373207a65726f206973206e6f74206120766160448201527f6c6964206f776e657200000000000000000000000000000000000000000000006064820152608401610450565b506001600160a01b031660009081526003602052604090205490565b606060018054610316906113ce565b6106ff338383610cf1565b5050565b61070d33836108d4565b61076f5760405162461bcd60e51b815260206004820152602d60248201527f4552433732313a2063616c6c6572206973206e6f7420746f6b656e206f776e6560448201526c1c881bdc88185c1c1c9bdd9959609a1b6064820152608401610450565b61077b84848484610dbf565b50505050565b606061078c826107f5565b60006107a360408051602081019091526000815290565b905060008151116107c357604051806020016040528060008152506107ee565b806107cd84610e48565b6040516020016107de929190611429565b6040516020818303038152906040525b9392505050565b6000818152600260205260409020546001600160a01b03166106485760405162461bcd60e51b815260206004820152601860248201527f4552433732313a20696e76616c696420746f6b656e20494400000000000000006044820152606401610450565b6000818152600460205260409020805473ffffffffffffffffffffffffffffffffffffffff19166001600160a01b038416908117909155819061089b826105a6565b6001600160a01b03167f8c5be1e5ebec7d5bd14f71427d1e84f3dd0314c0f7b2291e5b200ac8c7c3b92560405160405180910390a45050565b6000806108e0836105a6565b9050806001600160a01b0316846001600160a01b0316148061092757506001600160a01b0380821660009081526005602090815260408083209388168352929052205460ff165b8061094b5750836001600160a01b031661094084610399565b6001600160a01b0316145b949350505050565b826001600160a01b0316610966826105a6565b6001600160a01b0316146109ca5760405162461bcd60e51b815260206004820152602560248201527f4552433732313a207472616e736665722066726f6d20696e636f72726563742060448201526437bbb732b960d91b6064820152608401610450565b6001600160a01b038216610a455760405162461bcd60e51b8152602060048201526024808201527f4552433732313a207472616e7366657220746f20746865207a65726f2061646460448201527f72657373000000000000000000000000000000000000000000000000000000006064820152608401610450565b826001600160a01b0316610a58826105a6565b6001600160a01b031614610abc5760405162461bcd60e51b815260206004820152602560248201527f4552433732313a207472616e736665722066726f6d20696e636f72726563742060448201526437bbb732b960d91b6064820152608401610450565b6000818152600460209081526040808320805473ffffffffffffffffffffffffffffffffffffffff199081169091556001600160a01b0387811680865260038552838620805460001901905590871680865283862080546001019055868652600290945282852080549092168417909155905184937fddf252ad1be2c89b69c2b068fc378daa952ba7f163c4a11628f55a4df523b3ef91a4505050565b6001600160a01b038216610baf5760405162461bcd60e51b815260206004820181905260248201527f4552433732313a206d696e7420746f20746865207a65726f20616464726573736044820152606401610450565b6000818152600260205260409020546001600160a01b031615610c145760405162461bcd60e51b815260206004820152601c60248201527f4552433732313a20746f6b656e20616c7265616479206d696e746564000000006044820152606401610450565b6000818152600260205260409020546001600160a01b031615610c795760405162461bcd60e51b815260206004820152601c60248201527f4552433732313a20746f6b656e20616c7265616479206d696e746564000000006044820152606401610450565b6001600160a01b0382166000818152600360209081526040808320805460010190558483526002909152808220805473ffffffffffffffffffffffffffffffffffffffff19168417905551839291907fddf252ad1be2c89b69c2b068fc378daa952ba7f163c4a11628f55a4df523b3ef908290a45050565b816001600160a01b0316836001600160a01b031603610d525760405162461bcd60e51b815260206004820152601960248201527f4552433732313a20617070726f766520746f2063616c6c6572000000000000006044820152606401610450565b6001600160a01b03838116600081815260056020908152604080832094871680845294825291829020805460ff191686151590811790915591519182527f17307eab39ab6107e8899845ad3d59bd9653f200f220920489ca2b5937696c31910160405180910390a3505050565b610dca848484610953565b610dd684848484610ee8565b61077b5760405162461bcd60e51b815260206004820152603260248201527f4552433732313a207472616e7366657220746f206e6f6e20455243373231526560448201527f63656976657220696d706c656d656e74657200000000000000000000000000006064820152608401610450565b60606000610e558361103f565b600101905060008167ffffffffffffffff811115610e7557610e756112a9565b6040519080825280601f01601f191660200182016040528015610e9f576020820181803683370190505b5090508181016020015b600019017f3031323334353637383961626364656600000000000000000000000000000000600a86061a8153600a8504945084610ea957509392505050565b60006001600160a01b0384163b1561103457604051630a85bd0160e11b81526001600160a01b0385169063150b7a0290610f2c903390899088908890600401611458565b6020604051808303816000875af1925050508015610f67575060408051601f3d908101601f19168201909252610f6491810190611494565b60015b61101a573d808015610f95576040519150601f19603f3d011682016040523d82523d6000602084013e610f9a565b606091505b5080516000036110125760405162461bcd60e51b815260206004820152603260248201527f4552433732313a207472616e7366657220746f206e6f6e20455243373231526560448201527f63656976657220696d706c656d656e74657200000000000000000000000000006064820152608401610450565b805181602001fd5b6001600160e01b031916630a85bd0160e11b14905061094b565b506001949350505050565b6000807a184f03e93ff9f4daa797ed6e38ed64bf6a1f0100000000000000008310611088577a184f03e93ff9f4daa797ed6e38ed64bf6a1f010000000000000000830492506040015b6d04ee2d6d415b85acef810000000083106110b4576d04ee2d6d415b85acef8100000000830492506020015b662386f26fc1000083106110d257662386f26fc10000830492506010015b6305f5e10083106110ea576305f5e100830492506008015b61271083106110fe57612710830492506004015b60648310611110576064830492506002015b600a83106103015760010192915050565b6001600160e01b03198116811461064857600080fd5b60006020828403121561114957600080fd5b81356107ee81611121565b60005b8381101561116f578181015183820152602001611157565b50506000910152565b60008151808452611190816020860160208601611154565b601f01601f19169290920160200192915050565b6020815260006107ee6020830184611178565b6000602082840312156111c957600080fd5b5035919050565b80356001600160a01b03811681146111e757600080fd5b919050565b600080604083850312156111ff57600080fd5b611208836111d0565b946020939093013593505050565b60008060006060848603121561122b57600080fd5b611234846111d0565b9250611242602085016111d0565b9150604084013590509250925092565b60006020828403121561126457600080fd5b6107ee826111d0565b6000806040838503121561128057600080fd5b611289836111d0565b91506020830135801515811461129e57600080fd5b809150509250929050565b634e487b7160e01b600052604160045260246000fd5b600080600080608085870312156112d557600080fd5b6112de856111d0565b93506112ec602086016111d0565b925060408501359150606085013567ffffffffffffffff8082111561131057600080fd5b818701915087601f83011261132457600080fd5b813581811115611336576113366112a9565b604051601f8201601f19908116603f0116810190838211818310171561135e5761135e6112a9565b816040528281528a602084870101111561137757600080fd5b82602086016020830137600060208483010152809550505050505092959194509250565b600080604083850312156113ae57600080fd5b6113b7836111d0565b91506113c5602084016111d0565b90509250929050565b600181811c908216806113e257607f821691505b60208210810361140257634e487b7160e01b600052602260045260246000fd5b50919050565b8082018082111561030157634e487b7160e01b600052601160045260246000fd5b6000835161143b818460208801611154565b83519083019061144f818360208801611154565b01949350505050565b60006001600160a01b0380871683528086166020840152508360408301526080606083015261148a6080830184611178565b9695505050505050565b6000602082840312156114a657600080fd5b81516107ee8161112156fea2646970667358221220f5228f83d3c0a8a11f8ba5df826d495ccbfacefdcd9f6fdc86ba40c7c87c93b164736f6c63430008130033",
  "linkReferences": {},
  "deployedLinkReferences": {}
}