{
  "_format": "hh-sol-artifact-1",
  "contractName": "ChainBreak",
  "sourceName": "contracts/ChainBreak.sol",
  "abi": [
    {
      "anonymous": false,
      "inputs": [
        {
          "indexed": false,
          "internalType": "address",
          "name": "user1",
          "type": "address"
        },
        {
          "indexed": false,
          "internalType": "address",
          "name": "user2",
          "type": "address"
        },
        {
          "components": [
            {
              "internalType": "int256",
              "name": "amount",
              "type": "int256"
            },
            {
              "internalType": "string",
              "name": "description",
              "type": "string"
            },
            {
              "internalType": "uint32",
              "name": "createdAt",
              "type": "uint32"
            },
            {
              "internalType": "bool",
              "name": "from1",
              "type": "bool"
            },
            {
              "internalType": "enum ChainBreak.TxStatus",
              "name": "status",
              "type": "uint8"
            },
            {
              "internalType": "enum ChainBreak.TxType",
              "name": "txType",
              "type": "uint8"
            }
          ],
          "indexed": false,
          "internalType": "struct ChainBreak.Tx",
          "name": "transaction",
          "type": "tuple"
        },
        {
          "indexed": false,
          "internalType": "uint256",
          "name": "idx",
          "type": "uint256"
        }
      ],
      "name": "Transaction",
      "type": "event"
    },
    {
      "anonymous": false,
      "inputs": [
        {
          "indexed": false,
          "internalType": "address",
          "name": "user1",
          "type": "address"
        },
        {
          "indexed": false,
          "internalType": "address",
          "name": "user2",
          "type": "address"
        },
        {
          "components": [
            {
              "internalType": "int256",
              "name": "amount",
              "type": "int256"
            },
            {
              "internalType": "string",
              "name": "description",
              "type": "string"
            },
            {
              "internalType": "uint32",
              "name": "createdAt",
              "type": "uint32"
            },
            {
              "internalType": "bool",
              "name": "from1",
              "type": "bool"
            },
            {
              "internalType": "enum ChainBreak.TxStatus",
              "name": "status",
              "type": "uint8"
            },
            {
              "internalType": "enum ChainBreak.TxType",
              "name": "txType",
              "type": "uint8"
            }
          ],
          "indexed": false,
          "internalType": "struct ChainBreak.Tx",
          "name": "transaction",
          "type": "tuple"
        },
        {
          "indexed": false,
          "internalType": "uint256",
          "name": "idx",
          "type": "uint256"
        }
      ],
      "name": "TransactionConfirmed",
      "type": "event"
    },
    {
      "anonymous": false,
      "inputs": [
        {
          "indexed": false,
          "internalType": "address",
          "name": "user1",
          "type": "address"
        },
        {
          "indexed": false,
          "internalType": "address",
          "name": "user2",
          "type": "address"
        },
        {
          "components": [
            {
              "internalType": "int256",
              "name": "amount",
              "type": "int256"
            },
            {
              "internalType": "string",
              "name": "description",
              "type": "string"
            },
            {
              "internalType": "uint32",
              "name": "createdAt",
              "type": "uint32"
            },
            {
              "internalType": "bool",
              "name": "from1",
              "type": "bool"
            },
            {
              "internalType": "enum ChainBreak.TxStatus",
              "name": "status",
              "type": "uint8"
            },
            {
              "internalType": "enum ChainBreak.TxType",
              "name": "txType",
              "type": "uint8"
            }
          ],
          "indexed": false,
          "internalType": "struct ChainBreak.Tx",
          "name": "transaction",
          "type": "tuple"
        },
        {
          "indexed": false,
          "internalType": "uint256",
          "name": "idx",
          "type": "uint256"
        }
      ],
      "name": "TransactionRejected",
      "type": "event"
    },
    {
      "inputs": [],
      "name": "allUsers",
      "outputs": [
        {
          "internalType": "address[]",
          "name": "",
          "type": "address[]"
        }
      ],
      "stateMutability": "view",
      "type": "function"
    },
    {
      "inputs": [
        {
          "internalType": "address[]",
          "name": "users",
          "type": "address[]"
        },
        {
          "internalType": "int256",
          "name": "amount",
          "type": "int256"
        }
      ],
      "name": "breakDebtCircuit",
      "outputs": [],
      "stateMutability": "nonpayable",
      "type": "function"
    },
    {
      "inputs": [
        {
          "internalType": "address",
          "name": "addr1",
          "type": "address"
        },
        {
          "internalType": "address",
          "name": "addr2",
          "type": "address"
        }
      ],
      "name": "channelFor",
      "outputs": [
        {
          "internalType": "address",
          "name": "user1",
          "type": "address"
        },
        {
          "internalType": "address",
          "name": "user2",
          "type": "address"
        },
        {
          "components": [
            {
              "internalType": "int256",
              "name": "balance1",
              "type": "int256"
            },
            {
              "internalType": "int256",
              "name": "balance2",
              "type": "int256"
            },
            {
              "internalType": "uint256",
              "name": "fees",
              "type": "uint256"
            },
            {
              "components": [
                {
                  "internalType": "int256",
                  "name": "amount",
                  "type": "int256"
                },
                {
                  "internalType": "string",
                  "name": "description",
                  "type": "string"
                },
                {
                  "internalType": "uint32",
                  "name": "createdAt",
                  "type": "uint32"
                },
                {
                  "internalType": "bool",
                  "name": "from1",
                  "type": "bool"
                },
                {
                  "internalType": "enum ChainBreak.TxStatus",
                  "name": "status",
                  "type": "uint8"
                },
                {
                  "internalType": "enum ChainBreak.TxType",
                  "name": "txType",
                  "type": "uint8"
                }
              ],
              "internalType": "struct ChainBreak.Tx[]",
              "name": "txs",
              "type": "tuple[]"
            }
          ],
          "internalType": "struct ChainBreak.Channel",
          "name": "",
          "type": "tuple"
        }
      ],
      "stateMutability": "view",
      "type": "function"
    },
    {
      "inputs": [
        {
          "internalType": "address",
          "name": "user",
          "type": "address"
        },
        {
          "internalType": "uint256",
          "name": "idx",
          "type": "uint256"
        }
      ],
      "name": "confirmTx",
      "outputs": [],
      "stateMutability": "nonpayable",
      "type": "function"
    },
    {
      "inputs": [
        {
          "internalType": "address",
          "name": "user",
          "type": "address"
        },
        {
          "internalType": "int256",
          "name": "amount",
          "type": "int256"
        },
        {
          "internalType": "string",
          "name": "description",
          "type": "string"
        },
        {
          "internalType": "bool",
          "name": "send",
          "type": "bool"
        }
      ],
      "name": "createTx",
      "outputs": [],
      "stateMutability": "payable",
      "type": "function"
    },
    {
      "inputs": [
        {
          "internalType": "address",
          "name": "user",
          "type": "address"
        }
      ],
      "name": "getAllUserChannels",
      "outputs": [
        {
          "components": [
            {
              "internalType": "address",
              "name": "user1",
              "type": "address"
            },
            {
              "internalType": "address",
              "name": "user2",
              "type": "address"
            },
            {
              "components": [
                {
                  "internalType": "int256",
                  "name": "balance1",
                  "type": "int256"
                },
                {
                  "internalType": "int256",
                  "name": "balance2",
                  "type": "int256"
                },
                {
                  "internalType": "uint256",
                  "name": "fees",
                  "type": "uint256"
                },
                {
                  "components": [
                    {
                      "internalType": "int256",
                      "name": "amount",
                      "type": "int256"
                    },
                    {
                      "internalType": "string",
                      "name": "description",
                      "type": "string"
                    },
                    {
                      "internalType": "uint32",
                      "name": "createdAt",
                      "type": "uint32"
                    },
                    {
                      "internalType": "bool",
                      "name": "from1",
                      "type": "bool"
                    },
                    {
                      "internalType": "enum ChainBreak.TxStatus",
                      "name": "status",
                      "type": "uint8"
                    },
                    {
                      "internalType": "enum ChainBreak.TxType",
                      "name": "txType",
                      "type": "uint8"
                    }
                  ],
                  "internalType": "struct ChainBreak.Tx[]",
                  "name": "txs",
                  "type": "tuple[]"
                }
              ],
              "internalType": "struct ChainBreak.Channel",
              "name": "channel",
              "type": "tuple"
            }
          ],
          "internalType": "struct ChainBreak.ChannelView[]",
          "name": "",
          "type": "tuple[]"
        }
      ],
      "stateMutability": "view",
      "type": "function"
    },
    {
      "inputs": [
        {
          "internalType": "address",
          "name": "user",
          "type": "address"
        }
      ],
      "name": "getPendingTxs",
      "outputs": [
        {
          "components": [
            {
              "internalType": "address",
              "name": "user1",
              "type": "address"
            },
            {
              "internalType": "address",
              "name": "user2",
              "type": "address"
            },
            {
              "internalType": "uint256",
              "name": "idx",
              "type": "uint256"
            },
            {
              "components": [
                {
                  "internalType": "int256",
                  "name": "amount",
                  "type": "int256"
                },
                {
                  "internalType": "string",
                  "name": "description",
                  "type": "string"
                },
                {
                  "internalType": "uint32",
                  "name": "createdAt",
                  "type": "uint32"
                },
                {
                  "internalType": "bool",
                  "name": "from1",
                  "type": "bool"
                },
                {
                  "internalType": "enum ChainBreak.TxStatus",
                  "name": "status",
                  "type": "uint8"
                },
                {
                  "internalType": "enum ChainBreak.TxType",
                  "name": "txType",
                  "type": "uint8"
                }
              ],
              "internalType": "struct ChainBreak.Tx",
              "name": "tx",
              "type": "tuple"
            }
          ],
          "internalType": "struct ChainBreak.TxView[]",
          "name": "",
          "type": "tuple[]"
        }
      ],
      "stateMutability": "view",
      "type": "function"
    },
    {
      "inputs": [
        {
          "internalType": "address",
          "name": "user1",
          "type": "address"
        },
        {
          "internalType": "address",
          "name": "user2",
          "type": "address"
        },
        {
          "internalType": "uint256",
          "name": "idx",
          "type": "uint256"
        }
      ],
      "name": "getTx",
      "outputs": [
        {
          "components": [
            {
              "internalType": "int256",
              "name": "amount",
              "type": "int256"
            },
            {
              "internalType": "string",
              "name": "description",
              "type": "string"
            },
            {
              "internalType": "uint32",
              "name": "createdAt",
              "type": "uint32"
            },
            {
              "internalType": "bool",
              "name": "from1",
              "type": "bool"
            },
            {
              "internalType": "enum ChainBreak.TxStatus",
              "name": "status",
              "type": "uint8"
            },
            {
              "internalType": "enum ChainBreak.TxType",
              "name": "txType",
              "type": "uint8"
            }
          ],
          "internalType": "struct ChainBreak.Tx",
          "name": "",
          "type": "tuple"
        }
      ],
      "stateMutability": "view",
      "type": "function"
    },
    {
      "inputs": [
        {
          "internalType": "address",
          "name": "user",
          "type": "address"
        }
      ],
      "name": "getUserContacts",
      "outputs": [
        {
          "internalType": "address[]",
          "name": "",
          "type": "address[]"
        }
      ],
      "stateMutability": "view",
      "type": "function"
    },
    {
      "inputs": [
        {
          "internalType": "address",
          "name": "user",
          "type": "address"
        },
        {
          "internalType": "uint256",
          "name": "idx",
          "type": "uint256"
        }
      ],
      "name": "rejectTx",
      "outputs": [],
      "stateMutability": "nonpayable",
      "type": "function"
    },
    {
      "inputs": [
        {
          "internalType": "address",
          "name": "user1",
          "type": "address"
        },
        {
          "internalType": "address",
          "name": "user2",
          "type": "address"
        }
      ],
      "name": "sort",
      "outputs": [
        {
          "internalType": "address",
          "name": "",
          "type": "address"
        },
        {
          "internalType": "address",
          "name": "",
          "type": "address"
        }
      ],
      "stateMutability": "pure",
      "type": "function"
    }
  ],
  "bytecode": "0x608060405234801561001057600080fd5b5061461c806100206000396000f3fe60806040526004361061009c5760003560e01c80638edfcb74116100645780638edfcb74146101c0578063af3a7699146101e9578063c039662414610205578063c429392214610243578063df153d2714610282578063f5ed0b29146102ab5761009c565b80633ad21093146100a15780634918600a146100de57806351885b0a146101095780636ac6e93614610146578063811fb17414610183575b600080fd5b3480156100ad57600080fd5b506100c860048036038101906100c39190612bb4565b6102d4565b6040516100d59190612f59565b60405180910390f35b3480156100ea57600080fd5b506100f3610814565b604051610100919061302a565b60405180910390f35b34801561011557600080fd5b50610130600480360381019061012b9190612bb4565b6108a2565b60405161013d9190613283565b60405180910390f35b34801561015257600080fd5b5061016d60048036038101906101689190612bb4565b610cee565b60405161017a919061302a565b60405180910390f35b34801561018f57600080fd5b506101aa60048036038101906101a591906132d1565b610dba565b6040516101b791906133ad565b60405180910390f35b3480156101cc57600080fd5b506101e760048036038101906101e29190613460565b610fda565b005b61020360048036038101906101fe9190613542565b611792565b005b34801561021157600080fd5b5061022c600480360381019061022791906135ca565b611e08565b60405161023a929190613619565b60405180910390f35b34801561024f57600080fd5b5061026a600480360381019061026591906135ca565b611e54565b604051610279939291906136a5565b60405180910390f35b34801561028e57600080fd5b506102a960048036038101906102a491906136e3565b6120da565b005b3480156102b757600080fd5b506102d260048036038101906102cd91906136e3565b612304565b005b60606000606467ffffffffffffffff8111156102f3576102f2613723565b5b60405190808252806020026020018201604052801561032c57816020015b610319612a15565b8152602001906001900390816103115790505b5090506000805b6000808673ffffffffffffffffffffffffffffffffffffffff1673ffffffffffffffffffffffffffffffffffffffff16815260200190815260200160002080549050811015610808576000806104036000808973ffffffffffffffffffffffffffffffffffffffff1673ffffffffffffffffffffffffffffffffffffffff16815260200190815260200160002084815481106103d2576103d1613752565b5b9060005260206000200160009054906101000a900473ffffffffffffffffffffffffffffffffffffffff1688611e08565b915091506000600160008473ffffffffffffffffffffffffffffffffffffffff1673ffffffffffffffffffffffffffffffffffffffff16815260200190815260200160002060008373ffffffffffffffffffffffffffffffffffffffff1673ffffffffffffffffffffffffffffffffffffffff168152602001908152602001600020905060005b81600301805490508110156107f1578373ffffffffffffffffffffffffffffffffffffffff168973ffffffffffffffffffffffffffffffffffffffff1614801561052c5750600160038111156104e3576104e2612d18565b5b8260030182815481106104f9576104f8613752565b5b906000526020600020906003020160020160059054906101000a900460ff16600381111561052a57610529612d18565b5b145b806105c657508273ffffffffffffffffffffffffffffffffffffffff168973ffffffffffffffffffffffffffffffffffffffff161480156105c557506000600381111561057c5761057b612d18565b5b82600301828154811061059257610591613752565b5b906000526020600020906003020160020160059054906101000a900460ff1660038111156105c3576105c2612d18565b5b145b5b156107de5760405180608001604052808573ffffffffffffffffffffffffffffffffffffffff1681526020018473ffffffffffffffffffffffffffffffffffffffff16815260200182815260200183600301838154811061062a57610629613752565b5b90600052602060002090600302016040518060c00160405290816000820154815260200160018201805461065d906137b0565b80601f0160208091040260200160405190810160405280929190818152602001828054610689906137b0565b80156106d65780601f106106ab576101008083540402835291602001916106d6565b820191906000526020600020905b8154815290600101906020018083116106b957829003601f168201915b505050505081526020016002820160009054906101000a900463ffffffff1663ffffffff1663ffffffff1681526020016002820160049054906101000a900460ff161515151581526020016002820160059054906101000a900460ff16600381111561074557610744612d18565b5b600381111561075757610756612d18565b5b81526020016002820160069054906101000a900460ff1660018111156107805761077f612d18565b5b600181111561079257610791612d18565b5b815250508152508787815181106107ac576107ab613752565b5b60200260200101819052506001866107c49190613810565b9550606486036107dd578697505050505050505061080f565b5b80806107e990613844565b91505061048a565b50505050808061080090613844565b915050610333565b5081925050505b919050565b6060600280548060200260200160405190810160405280929190818152602001828054801561089857602002820191906000526020600020905b8160009054906101000a900473ffffffffffffffffffffffffffffffffffffffff1673ffffffffffffffffffffffffffffffffffffffff168152602001906001019080831161084e575b5050505050905090565b606060008060008473ffffffffffffffffffffffffffffffffffffffff1673ffffffffffffffffffffffffffffffffffffffff1681526020019081526020016000208054905067ffffffffffffffff81111561090157610900613723565b5b60405190808252806020026020018201604052801561093a57816020015b610927612a6f565b81526020019060019003908161091f5790505b50905060005b6000808573ffffffffffffffffffffffffffffffffffffffff1673ffffffffffffffffffffffffffffffffffffffff16815260200190815260200160002080549050811015610ce457600080610a10866000808973ffffffffffffffffffffffffffffffffffffffff1673ffffffffffffffffffffffffffffffffffffffff16815260200190815260200160002085815481106109e0576109df613752565b5b9060005260206000200160009054906101000a900473ffffffffffffffffffffffffffffffffffffffff16611e08565b9150915060405180606001604052808373ffffffffffffffffffffffffffffffffffffffff1681526020018273ffffffffffffffffffffffffffffffffffffffff168152602001600160008573ffffffffffffffffffffffffffffffffffffffff1673ffffffffffffffffffffffffffffffffffffffff16815260200190815260200160002060008473ffffffffffffffffffffffffffffffffffffffff1673ffffffffffffffffffffffffffffffffffffffff16815260200190815260200160002060405180608001604052908160008201548152602001600182015481526020016002820154815260200160038201805480602002602001604051908101604052809291908181526020016000905b82821015610ca657838290600052602060002090600302016040518060c001604052908160008201548152602001600182018054610b5e906137b0565b80601f0160208091040260200160405190810160405280929190818152602001828054610b8a906137b0565b8015610bd75780601f10610bac57610100808354040283529160200191610bd7565b820191906000526020600020905b815481529060010190602001808311610bba57829003601f168201915b505050505081526020016002820160009054906101000a900463ffffffff1663ffffffff1663ffffffff1681526020016002820160049054906101000a900460ff161515151581526020016002820160059054906101000a900460ff166003811115610c4657610c45612d18565b5b6003811115610c5857610c57612d18565b5b81526020016002820160069054906101000a900460ff166001811115610c8157610c80612d18565b5b6001811115610c9357610c92612d18565b5b8152505081526020019060010190610b21565b5050505081525050815250848481518110610cc457610cc3613752565b5b602002602001018190525050508080610cdc90613844565b915050610940565b5080915050919050565b60606000808373ffffffffffffffffffffffffffffffffffffffff1673ffffffffffffffffffffffffffffffffffffffff168152602001908152602001600020805480602002602001604051908101604052809291908181526020018280548015610dae57602002820191906000526020600020905b8160009054906101000a900473ffffffffffffffffffffffffffffffffffffffff1673ffffffffffffffffffffffffffffffffffffffff1681526020019060010190808311610d64575b50505050509050919050565b610dc2612ac2565b610dcc8484611e08565b8094508195505050600160008573ffffffffffffffffffffffffffffffffffffffff1673ffffffffffffffffffffffffffffffffffffffff16815260200190815260200160002060008473ffffffffffffffffffffffffffffffffffffffff1673ffffffffffffffffffffffffffffffffffffffff1681526020019081526020016000206003018281548110610e6557610e64613752565b5b90600052602060002090600302016040518060c001604052908160008201548152602001600182018054610e98906137b0565b80601f0160208091040260200160405190810160405280929190818152602001828054610ec4906137b0565b8015610f115780601f10610ee657610100808354040283529160200191610f11565b820191906000526020600020905b815481529060010190602001808311610ef457829003601f168201915b505050505081526020016002820160009054906101000a900463ffffffff1663ffffffff1663ffffffff1681526020016002820160049054906101000a900460ff161515151581526020016002820160059054906101000a900460ff166003811115610f8057610f7f612d18565b5b6003811115610f9257610f91612d18565b5b81526020016002820160069054906101000a900460ff166001811115610fbb57610fba612d18565b5b6001811115610fcd57610fcc612d18565b5b8152505090509392505050565b6000811361101d576040517f08c379a00000000000000000000000000000000000000000000000000000000081526004016110149061390f565b60405180910390fd5b60006110898484600090600188889050611037919061392f565b926110449392919061396d565b80806020026020016040519081016040528093929190818152602001838360200280828437600081840152601f19601f820116905080830192505050505050506126e6565b905060005b6001825161109c919061392f565b81101561116457816001826110b19190613810565b815181106110c2576110c1613752565b5b602002602001015173ffffffffffffffffffffffffffffffffffffffff168282815181106110f3576110f2613752565b5b602002602001015173ffffffffffffffffffffffffffffffffffffffff1603611151576040517f08c379a000000000000000000000000000000000000000000000000000000000815260040161114890613a1a565b60405180910390fd5b808061115c90613844565b91505061108e565b508383600186869050611177919061392f565b81811061118757611186613752565b5b905060200201602081019061119c9190612bb4565b73ffffffffffffffffffffffffffffffffffffffff16848460008181106111c6576111c5613752565b5b90506020020160208101906111db9190612bb4565b73ffffffffffffffffffffffffffffffffffffffff1614611231576040517f08c379a000000000000000000000000000000000000000000000000000000000815260040161122890613aac565b60405180910390fd5b6000805b600186869050611245919061392f565b811015611739576000806112b388888581811061126557611264613752565b5b905060200201602081019061127a9190612bb4565b89896001876112899190613810565b81811061129957611298613752565b5b90506020020160208101906112ae9190612bb4565b611e08565b915091506000600160008473ffffffffffffffffffffffffffffffffffffffff1673ffffffffffffffffffffffffffffffffffffffff16815260200190815260200160002060008373ffffffffffffffffffffffffffffffffffffffff1673ffffffffffffffffffffffffffffffffffffffff168152602001908152602001600020905061133f612ac2565b8373ffffffffffffffffffffffffffffffffffffffff168a8a8781811061136957611368613752565b5b905060200201602081019061137e9190612bb4565b73ffffffffffffffffffffffffffffffffffffffff16036114ae57878260000160008282546113ad9190613acc565b92505081905550878260010160008282546113c89190613b10565b92505081905550600082600101541215611417576040517f08c379a000000000000000000000000000000000000000000000000000000000815260040161140e90613bc5565b60405180910390fd5b6040518060c001604052808981526020016040518060400160405280600c81526020017f4175746f207265736f6c7665000000000000000000000000000000000000000081525081526020014263ffffffff1681526020016001151581526020016002600381111561148c5761148b612d18565b5b81526020016001808111156114a4576114a3612d18565b5b81525090506115bf565b878260010160008282546114c29190613acc565b92505081905550878260000160008282546114dd9190613b10565b9250508190555060008260000154121561152c576040517f08c379a000000000000000000000000000000000000000000000000000000000815260040161152390613bc5565b60405180910390fd5b6040518060c001604052808981526020016040518060400160405280600c81526020017f4175746f207265736f6c7665000000000000000000000000000000000000000081525081526020014263ffffffff168152602001600015158152602001600260038111156115a1576115a0612d18565b5b81526020016001808111156115b9576115b8612d18565b5b81525090505b8160020154866115cf9190613810565b95508160030181908060018154018082558091505060019003906000526020600020906003020160009091909190915060008201518160000155602082015181600101908161161e9190613d91565b5060408201518160020160006101000a81548163ffffffff021916908363ffffffff16021790555060608201518160020160046101000a81548160ff02191690831515021790555060808201518160020160056101000a81548160ff0219169083600381111561169157611690612d18565b5b021790555060a08201518160020160066101000a81548160ff021916908360018111156116c1576116c0612d18565b5b02179055505050600082600201819055507f92579abb4228fd316a53827ea8a66dda24cf81ca3c47fb5b31b08cc2a3a980548484836001866003018054905061170a919061392f565b60405161171a9493929190613e72565b60405180910390a150505050808061173190613844565b915050611235565b50600081111561178b573373ffffffffffffffffffffffffffffffffffffffff166108fc829081150290604051600060405180830381858888f19350505050158015611789573d6000803e3d6000fd5b505b5050505050565b600084136117d5576040517f08c379a00000000000000000000000000000000000000000000000000000000081526004016117cc90613f30565b60405180910390fd5b3373ffffffffffffffffffffffffffffffffffffffff168573ffffffffffffffffffffffffffffffffffffffff1603611843576040517f08c379a000000000000000000000000000000000000000000000000000000000815260040161183a90613f9c565b60405180910390fd5b6000806118503388611e08565b9150915060008273ffffffffffffffffffffffffffffffffffffffff163373ffffffffffffffffffffffffffffffffffffffff1614611890576001611893565b60005b905060008060038111156118aa576118a9612d18565b5b8260038111156118bd576118bc612d18565b5b036118ca578490506118cf565b841590505b6000600160008673ffffffffffffffffffffffffffffffffffffffff1673ffffffffffffffffffffffffffffffffffffffff16815260200190815260200160002060008573ffffffffffffffffffffffffffffffffffffffff1673ffffffffffffffffffffffffffffffffffffffff168152602001908152602001600020905060008060008773ffffffffffffffffffffffffffffffffffffffff1673ffffffffffffffffffffffffffffffffffffffff16815260200190815260200160002080549050036119fc576002859080600181540180825580915050600190039060005260206000200160009091909190916101000a81548173ffffffffffffffffffffffffffffffffffffffff021916908373ffffffffffffffffffffffffffffffffffffffff1602179055505b60008060008673ffffffffffffffffffffffffffffffffffffffff1673ffffffffffffffffffffffffffffffffffffffff1681526020019081526020016000208054905003611aa9576002849080600181540180825580915050600190039060005260206000200160009091909190916101000a81548173ffffffffffffffffffffffffffffffffffffffff021916908373ffffffffffffffffffffffffffffffffffffffff1602179055505b6000816003018054905003611bf7576000808673ffffffffffffffffffffffffffffffffffffffff1673ffffffffffffffffffffffffffffffffffffffff168152602001908152602001600020849080600181540180825580915050600190039060005260206000200160009091909190916101000a81548173ffffffffffffffffffffffffffffffffffffffff021916908373ffffffffffffffffffffffffffffffffffffffff1602179055506000808573ffffffffffffffffffffffffffffffffffffffff1673ffffffffffffffffffffffffffffffffffffffff168152602001908152602001600020859080600181540180825580915050600190039060005260206000200160009091909190916101000a81548173ffffffffffffffffffffffffffffffffffffffff021916908373ffffffffffffffffffffffffffffffffffffffff1602179055505b60006040518060c001604052808b81526020018a8a8080601f016020809104026020016040519081016040528093929190818152602001838380828437600081840152601f19601f8201169050808301925050505050505081526020014263ffffffff1681526020018415158152602001856003811115611c7b57611c7a612d18565b5b815260200160006001811115611c9457611c93612d18565b5b815250905034826002016000828254611cad9190613810565b9250508190555081600301819080600181540180825580915050600190039060005260206000209060030201600090919091909150600082015181600001556020820151816001019081611d019190613d91565b5060408201518160020160006101000a81548163ffffffff021916908363ffffffff16021790555060608201518160020160046101000a81548160ff02191690831515021790555060808201518160020160056101000a81548160ff02191690836003811115611d7457611d73612d18565b5b021790555060a08201518160020160066101000a81548160ff02191690836001811115611da457611da3612d18565b5b021790555050507f92579abb4228fd316a53827ea8a66dda24cf81ca3c47fb5b31b08cc2a3a9805486868360018660030180549050611de3919061392f565b604051611df39493929190613e72565b60405180910390a15050505050505050505050565b6000808273ffffffffffffffffffffffffffffffffffffffff168473ffffffffffffffffffffffffffffffffffffffff161115611e46578284611e49565b83835b915091509250929050565b600080611e5f612b24565b611e698585611e08565b80935081945050508282600160008673ffffffffffffffffffffffffffffffffffffffff1673ffffffffffffffffffffffffffffffffffffffff16815260200190815260200160002060008573ffffffffffffffffffffffffffffffffffffffff1673ffffffffffffffffffffffffffffffffffffffff1681526020019081526020016000208060405180608001604052908160008201548152602001600182015481526020016002820154815260200160038201805480602002602001604051908101604052809291908181526020016000905b828210156120c357838290600052602060002090600302016040518060c001604052908160008201548152602001600182018054611f7b906137b0565b80601f0160208091040260200160405190810160405280929190818152602001828054611fa7906137b0565b8015611ff45780601f10611fc957610100808354040283529160200191611ff4565b820191906000526020600020905b815481529060010190602001808311611fd757829003601f168201915b505050505081526020016002820160009054906101000a900463ffffffff1663ffffffff1663ffffffff1681526020016002820160049054906101000a900460ff161515151581526020016002820160059054906101000a900460ff16600381111561206357612062612d18565b5b600381111561207557612074612d18565b5b81526020016002820160069054906101000a900460ff16600181111561209e5761209d612d18565b5b60018111156120b0576120af612d18565b5b8152505081526020019060010190611f3e565b505050508152505090509250925092509250925092565b6000806120e73385611e08565b915091506000600160008473ffffffffffffffffffffffffffffffffffffffff1673ffffffffffffffffffffffffffffffffffffffff16815260200190815260200160002060008373ffffffffffffffffffffffffffffffffffffffff1673ffffffffffffffffffffffffffffffffffffffff1681526020019081526020016000209050600081600301858154811061218357612182613752565b5b90600052602060002090600302019050600260038111156121a7576121a6612d18565b5b8160020160059054906101000a900460ff1660038111156121cb576121ca612d18565b5b148061220b57506003808111156121e5576121e4612d18565b5b8160020160059054906101000a900460ff16600381111561220957612208612d18565b5b145b1561224b576040517f08c379a000000000000000000000000000000000000000000000000000000000815260040161224290614008565b60405180910390fd5b6000816000015413612292576040517f08c379a000000000000000000000000000000000000000000000000000000000815260040161228990614074565b60405180910390fd5b60038160020160056101000a81548160ff021916908360038111156122ba576122b9612d18565b5b02179055507fd6ac6f8f9689f8f5129b14be44fdfa0253bc01b0346b8a810fdf3797adf21148848483886040516122f494939291906142bb565b60405180910390a1505050505050565b6000806123113385611e08565b915091506000600160008473ffffffffffffffffffffffffffffffffffffffff1673ffffffffffffffffffffffffffffffffffffffff16815260200190815260200160002060008373ffffffffffffffffffffffffffffffffffffffff1673ffffffffffffffffffffffffffffffffffffffff168152602001908152602001600020905060008160030185815481106123ad576123ac613752565b5b90600052602060002090600302019050600260038111156123d1576123d0612d18565b5b8160020160059054906101000a900460ff1660038111156123f5576123f4612d18565b5b1480612435575060038081111561240f5761240e612d18565b5b8160020160059054906101000a900460ff16600381111561243357612432612d18565b5b145b15612475576040517f08c379a000000000000000000000000000000000000000000000000000000000815260040161246c90614379565b60405180910390fd5b60008160000154136124bc576040517f08c379a00000000000000000000000000000000000000000000000000000000081526004016124b39061440b565b60405180910390fd5b600060038111156124d0576124cf612d18565b5b8160020160059054906101000a900460ff1660038111156124f4576124f3612d18565b5b0361256c578273ffffffffffffffffffffffffffffffffffffffff163373ffffffffffffffffffffffffffffffffffffffff1614612567576040517f08c379a000000000000000000000000000000000000000000000000000000000815260040161255e9061449d565b60405180910390fd5b6125db565b8373ffffffffffffffffffffffffffffffffffffffff163373ffffffffffffffffffffffffffffffffffffffff16146125da576040517f08c379a00000000000000000000000000000000000000000000000000000000081526004016125d19061449d565b60405180910390fd5b5b60028160020160056101000a81548160ff0219169083600381111561260357612602612d18565b5b02179055508060020160049054906101000a900460ff16156126625780600001548260000160008282546126379190613acc565b9250508190555080600001548260010160008282546126569190613b10565b925050819055506126a1565b806000015482600001600082825461267a9190613b10565b9250508190555080600001548260010160008282546126999190613acc565b925050819055505b7f509b6de3edf97ac2e373b85c8dcea53c77e8624c90105806ed21392480c293b4848483886040516126d694939291906142bb565b60405180910390a1505050505050565b60606000825167ffffffffffffffff81111561270557612704613723565b5b6040519080825280602002602001820160405280156127335781602001602082028036833780820191505090505b50905060005b83518110156127bd5783818151811061275557612754613752565b5b60200260200101518282815181106127705761276f613752565b5b602002602001019073ffffffffffffffffffffffffffffffffffffffff16908173ffffffffffffffffffffffffffffffffffffffff168152505080806127b590613844565b915050612739565b506127d7816000600184516127d2919061392f565b6127e0565b80915050919050565b600082905060008290508082036127f8575050612a10565b600085600286866128099190613b10565b61281391906144ec565b8661281e9190613acc565b8151811061282f5761282e613752565b5b602002602001015173ffffffffffffffffffffffffffffffffffffffff1690505b8183136129e4575b8086848151811061286c5761286b613752565b5b602002602001015173ffffffffffffffffffffffffffffffffffffffff1610156128a357828061289b90614556565b935050612858565b5b8582815181106128b7576128b6613752565b5b602002602001015173ffffffffffffffffffffffffffffffffffffffff168110156128ef5781806128e79061459e565b9250506128a4565b8183136129df5785828151811061290957612908613752565b5b602002602001015186848151811061292457612923613752565b5b602002602001015187858151811061293f5761293e613752565b5b6020026020010188858151811061295957612958613752565b5b602002602001018273ffffffffffffffffffffffffffffffffffffffff1673ffffffffffffffffffffffffffffffffffffffff168152508273ffffffffffffffffffffffffffffffffffffffff1673ffffffffffffffffffffffffffffffffffffffff16815250505082806129cd90614556565b93505081806129db9061459e565b9250505b612850565b818512156129f8576129f78686846127e0565b5b83831215612a0c57612a0b8684866127e0565b5b5050505b505050565b6040518060800160405280600073ffffffffffffffffffffffffffffffffffffffff168152602001600073ffffffffffffffffffffffffffffffffffffffff16815260200160008152602001612a69612ac2565b81525090565b6040518060600160405280600073ffffffffffffffffffffffffffffffffffffffff168152602001600073ffffffffffffffffffffffffffffffffffffffff168152602001612abc612b24565b81525090565b6040518060c001604052806000815260200160608152602001600063ffffffff16815260200160001515815260200160006003811115612b0557612b04612d18565b5b815260200160006001811115612b1e57612b1d612d18565b5b81525090565b6040518060800160405280600081526020016000815260200160008152602001606081525090565b600080fd5b600080fd5b600073ffffffffffffffffffffffffffffffffffffffff82169050919050565b6000612b8182612b56565b9050919050565b612b9181612b76565b8114612b9c57600080fd5b50565b600081359050612bae81612b88565b92915050565b600060208284031215612bca57612bc9612b4c565b5b6000612bd884828501612b9f565b91505092915050565b600081519050919050565b600082825260208201905092915050565b6000819050602082019050919050565b612c1681612b76565b82525050565b6000819050919050565b612c2f81612c1c565b82525050565b6000819050919050565b612c4881612c35565b82525050565b600081519050919050565b600082825260208201905092915050565b60005b83811015612c88578082015181840152602081019050612c6d565b60008484015250505050565b6000601f19601f8301169050919050565b6000612cb082612c4e565b612cba8185612c59565b9350612cca818560208601612c6a565b612cd381612c94565b840191505092915050565b600063ffffffff82169050919050565b612cf781612cde565b82525050565b60008115159050919050565b612d1281612cfd565b82525050565b7f4e487b7100000000000000000000000000000000000000000000000000000000600052602160045260246000fd5b60048110612d5857612d57612d18565b5b50565b6000819050612d6982612d47565b919050565b6000612d7982612d5b565b9050919050565b612d8981612d6e565b82525050565b60028110612da057612d9f612d18565b5b50565b6000819050612db182612d8f565b919050565b6000612dc182612da3565b9050919050565b612dd181612db6565b82525050565b600060c083016000830151612def6000860182612c3f565b5060208301518482036020860152612e078282612ca5565b9150506040830151612e1c6040860182612cee565b506060830151612e2f6060860182612d09565b506080830151612e426080860182612d80565b5060a0830151612e5560a0860182612dc8565b508091505092915050565b6000608083016000830151612e786000860182612c0d565b506020830151612e8b6020860182612c0d565b506040830151612e9e6040860182612c26565b5060608301518482036060860152612eb68282612dd7565b9150508091505092915050565b6000612ecf8383612e60565b905092915050565b6000602082019050919050565b6000612eef82612be1565b612ef98185612bec565b935083602082028501612f0b85612bfd565b8060005b85811015612f475784840389528151612f288582612ec3565b9450612f3383612ed7565b925060208a01995050600181019050612f0f565b50829750879550505050505092915050565b60006020820190508181036000830152612f738184612ee4565b905092915050565b600081519050919050565b600082825260208201905092915050565b6000819050602082019050919050565b6000612fb38383612c0d565b60208301905092915050565b6000602082019050919050565b6000612fd782612f7b565b612fe18185612f86565b9350612fec83612f97565b8060005b8381101561301d5781516130048882612fa7565b975061300f83612fbf565b925050600181019050612ff0565b5085935050505092915050565b600060208201905081810360008301526130448184612fcc565b905092915050565b600081519050919050565b600082825260208201905092915050565b6000819050602082019050919050565b600081519050919050565b600082825260208201905092915050565b6000819050602082019050919050565b60006130b08383612dd7565b905092915050565b6000602082019050919050565b60006130d082613078565b6130da8185613083565b9350836020820285016130ec85613094565b8060005b85811015613128578484038952815161310985826130a4565b9450613114836130b8565b925060208a019950506001810190506130f0565b50829750879550505050505092915050565b60006080830160008301516131526000860182612c3f565b5060208301516131656020860182612c3f565b5060408301516131786040860182612c26565b506060830151848203606086015261319082826130c5565b9150508091505092915050565b60006060830160008301516131b56000860182612c0d565b5060208301516131c86020860182612c0d565b50604083015184820360408601526131e0828261313a565b9150508091505092915050565b60006131f9838361319d565b905092915050565b6000602082019050919050565b60006132198261304c565b6132238185613057565b93508360208202850161323585613068565b8060005b85811015613271578484038952815161325285826131ed565b945061325d83613201565b925060208a01995050600181019050613239565b50829750879550505050505092915050565b6000602082019050818103600083015261329d818461320e565b905092915050565b6132ae81612c1c565b81146132b957600080fd5b50565b6000813590506132cb816132a5565b92915050565b6000806000606084860312156132ea576132e9612b4c565b5b60006132f886828701612b9f565b935050602061330986828701612b9f565b925050604061331a868287016132bc565b9150509250925092565b600060c08301600083015161333c6000860182612c3f565b50602083015184820360208601526133548282612ca5565b91505060408301516133696040860182612cee565b50606083015161337c6060860182612d09565b50608083015161338f6080860182612d80565b5060a08301516133a260a0860182612dc8565b508091505092915050565b600060208201905081810360008301526133c78184613324565b905092915050565b600080fd5b600080fd5b600080fd5b60008083601f8401126133f4576133f36133cf565b5b8235905067ffffffffffffffff811115613411576134106133d4565b5b60208301915083602082028301111561342d5761342c6133d9565b5b9250929050565b61343d81612c35565b811461344857600080fd5b50565b60008135905061345a81613434565b92915050565b60008060006040848603121561347957613478612b4c565b5b600084013567ffffffffffffffff81111561349757613496612b51565b5b6134a3868287016133de565b935093505060206134b68682870161344b565b9150509250925092565b60008083601f8401126134d6576134d56133cf565b5b8235905067ffffffffffffffff8111156134f3576134f26133d4565b5b60208301915083600182028301111561350f5761350e6133d9565b5b9250929050565b61351f81612cfd565b811461352a57600080fd5b50565b60008135905061353c81613516565b92915050565b60008060008060006080868803121561355e5761355d612b4c565b5b600061356c88828901612b9f565b955050602061357d8882890161344b565b945050604086013567ffffffffffffffff81111561359e5761359d612b51565b5b6135aa888289016134c0565b935093505060606135bd8882890161352d565b9150509295509295909350565b600080604083850312156135e1576135e0612b4c565b5b60006135ef85828601612b9f565b925050602061360085828601612b9f565b9150509250929050565b61361381612b76565b82525050565b600060408201905061362e600083018561360a565b61363b602083018461360a565b9392505050565b600060808301600083015161365a6000860182612c3f565b50602083015161366d6020860182612c3f565b5060408301516136806040860182612c26565b506060830151848203606086015261369882826130c5565b9150508091505092915050565b60006060820190506136ba600083018661360a565b6136c7602083018561360a565b81810360408301526136d98184613642565b9050949350505050565b600080604083850312156136fa576136f9612b4c565b5b600061370885828601612b9f565b9250506020613719858286016132bc565b9150509250929050565b7f4e487b7100000000000000000000000000000000000000000000000000000000600052604160045260246000fd5b7f4e487b7100000000000000000000000000000000000000000000000000000000600052603260045260246000fd5b7f4e487b7100000000000000000000000000000000000000000000000000000000600052602260045260246000fd5b600060028204905060018216806137c857607f821691505b6020821081036137db576137da613781565b5b50919050565b7f4e487b7100000000000000000000000000000000000000000000000000000000600052601160045260246000fd5b600061381b82612c1c565b915061382683612c1c565b925082820190508082111561383e5761383d6137e1565b5b92915050565b600061384f82612c1c565b91507fffffffffffffffffffffffffffffffffffffffffffffffffffffffffffffffff8203613881576138806137e1565b5b600182019050919050565b600082825260208201905092915050565b7f436861696e427265616b3a3a627265616b44656274436972637569743a206e6560008201527f67617469766520616d6f756e7400000000000000000000000000000000000000602082015250565b60006138f9602d8361388c565b91506139048261389d565b604082019050919050565b60006020820190508181036000830152613928816138ec565b9050919050565b600061393a82612c1c565b915061394583612c1c565b925082820390508181111561395d5761395c6137e1565b5b92915050565b600080fd5b600080fd5b6000808585111561398157613980613963565b5b8386111561399257613991613968565b5b6020850283019150848603905094509492505050565b7f436861696e427265616b3a3a627265616b44656274436972637569743a20647560008201527f706c696361746520656c656d656e747300000000000000000000000000000000602082015250565b6000613a0460308361388c565b9150613a0f826139a8565b604082019050919050565b60006020820190508181036000830152613a33816139f7565b9050919050565b7f436861696e427265616b3a3a627265616b44656274436972637569743a20626160008201527f6420706174680000000000000000000000000000000000000000000000000000602082015250565b6000613a9660268361388c565b9150613aa182613a3a565b604082019050919050565b60006020820190508181036000830152613ac581613a89565b9050919050565b6000613ad782612c35565b9150613ae283612c35565b925082820190508281121560008312168382126000841215161715613b0a57613b096137e1565b5b92915050565b6000613b1b82612c35565b9150613b2683612c35565b9250828203905081811260008412168282136000851215161715613b4d57613b4c6137e1565b5b92915050565b7f436861696e427265616b3a3a627265616b44656274436972637569743a20626160008201527f64206f7065726174696f6e000000000000000000000000000000000000000000602082015250565b6000613baf602b8361388c565b9150613bba82613b53565b604082019050919050565b60006020820190508181036000830152613bde81613ba2565b9050919050565b60008190508160005260206000209050919050565b60006020601f8301049050919050565b600082821b905092915050565b600060088302613c477fffffffffffffffffffffffffffffffffffffffffffffffffffffffffffffffff82613c0a565b613c518683613c0a565b95508019841693508086168417925050509392505050565b6000819050919050565b6000613c8e613c89613c8484612c1c565b613c69565b612c1c565b9050919050565b6000819050919050565b613ca883613c73565b613cbc613cb482613c95565b848454613c17565b825550505050565b600090565b613cd1613cc4565b613cdc818484613c9f565b505050565b5b81811015613d0057613cf5600082613cc9565b600181019050613ce2565b5050565b601f821115613d4557613d1681613be5565b613d1f84613bfa565b81016020851015613d2e578190505b613d42613d3a85613bfa565b830182613ce1565b50505b505050565b600082821c905092915050565b6000613d6860001984600802613d4a565b1980831691505092915050565b6000613d818383613d57565b9150826002028217905092915050565b613d9a82612c4e565b67ffffffffffffffff811115613db357613db2613723565b5b613dbd82546137b0565b613dc8828285613d04565b600060209050601f831160018114613dfb5760008415613de9578287015190505b613df38582613d75565b865550613e5b565b601f198416613e0986613be5565b60005b82811015613e3157848901518255600182019150602085019450602081019050613e0c565b86831015613e4e5784890151613e4a601f891682613d57565b8355505b6001600288020188555050505b505050505050565b613e6c81612c1c565b82525050565b6000608082019050613e87600083018761360a565b613e94602083018661360a565b8181036040830152613ea68185613324565b9050613eb56060830184613e63565b95945050505050565b7f436861696e427265616b3a3a63726561746554783a206e65676174697665206160008201527f6d6f756e74000000000000000000000000000000000000000000000000000000602082015250565b6000613f1a60258361388c565b9150613f2582613ebe565b604082019050919050565b60006020820190508181036000830152613f4981613f0d565b9050919050565b7f436861696e427265616b3a3a63726561746554783a2062616420757365720000600082015250565b6000613f86601e8361388c565b9150613f9182613f50565b602082019050919050565b60006020820190508181036000830152613fb581613f79565b9050919050565b7f436861696e427265616b3a3a72656a65637454783a2062616420737461747573600082015250565b6000613ff260208361388c565b9150613ffd82613fbc565b602082019050919050565b6000602082019050818103600083015261402181613fe5565b9050919050565b7f436861696e427265616b3a3a72656a65637454783a2062616420616d6f756e74600082015250565b600061405e60208361388c565b915061406982614028565b602082019050919050565b6000602082019050818103600083015261408d81614051565b9050919050565b60008160001c9050919050565b6000819050919050565b60006140be6140b983614094565b6140a1565b9050919050565b600081546140d2816137b0565b6140dc8186612c59565b945060018216600081146140f7576001811461410d57614140565b60ff198316865281151560200286019350614140565b61411685613be5565b60005b8381101561413857815481890152600182019150602081019050614119565b808801955050505b50505092915050565b600063ffffffff82169050919050565b600061416c61416783614094565b614149565b9050919050565b60008160201c9050919050565b600060ff82169050919050565b60006141a061419b83614173565b614180565b9050919050565b60008160281c9050919050565b600060ff82169050919050565b60006141d46141cf836141a7565b6141b4565b9050919050565b60008160301c9050919050565b600060ff82169050919050565b6000614208614203836141db565b6141e8565b9050919050565b600060c083016000808401549050614226816140ab565b6142336000870182612c3f565b5060018401858303602087015261424a83826140c5565b9250506002840154905061425d81614159565b61426a6040870182612cee565b506142748161418d565b6142816060870182612d09565b5061428b816141c1565b6142986080870182612d80565b506142a2816141f5565b6142af60a0870182612dc8565b50819250505092915050565b60006080820190506142d0600083018761360a565b6142dd602083018661360a565b81810360408301526142ef818561420f565b90506142fe6060830184613e63565b95945050505050565b7f436861696e427265616b3a3a636f6e6669726d54783a2062616420737461747560008201527f7300000000000000000000000000000000000000000000000000000000000000602082015250565b600061436360218361388c565b915061436e82614307565b604082019050919050565b6000602082019050818103600083015261439281614356565b9050919050565b7f436861696e427265616b3a3a636f6e6669726d54783a2062616420616d6f756e60008201527f7400000000000000000000000000000000000000000000000000000000000000602082015250565b60006143f560218361388c565b915061440082614399565b604082019050919050565b60006020820190508181036000830152614424816143e8565b9050919050565b7f436861696e427265616b3a3a636f6e6669726d54783a2063616e7420636f6e6660008201527f69726d0000000000000000000000000000000000000000000000000000000000602082015250565b600061448760238361388c565b91506144928261442b565b604082019050919050565b600060208201905081810360008301526144b68161447a565b9050919050565b7f4e487b7100000000000000000000000000000000000000000000000000000000600052601260045260246000fd5b60006144f782612c35565b915061450283612c35565b925082614512576145116144bd565b5b600160000383147f80000000000000000000000000000000000000000000000000000000000000008314161561454b5761454a6137e1565b5b828205905092915050565b600061456182612c35565b91507f7fffffffffffffffffffffffffffffffffffffffffffffffffffffffffffffff8203614593576145926137e1565b5b600182019050919050565b60006145a982612c35565b91507f800000000000000000000000000000000000000000000000000000000000000082036145db576145da6137e1565b5b60018203905091905056fea264697066735822122069d932734330fec3adfb2ad6e9a0d4ba8063a35b57c361353307f6947f57439964736f6c63430008130033",
  "linkReferences": {},
  "deployedLinkReferences": {}
}